{"contracts/HotelManagement.sol":{"HotelManagement":{"abi":[{"inputs":[{"internalType":"address","name":"_setReceptionist","type":"address"}],"stateMutability":"nonpayable","type":"constructor"},{"inputs":[{"internalType":"uint256","name":"","type":"uint256"},{"internalType":"address","name":"","type":"address"}],"name":"CustomerRecords","outputs":[{"internalType":"uint256","name":"","type":"uint256"}],"stateMutability":"view","type":"function"},{"inputs":[],"name":"Owner","outputs":[{"internalType":"address payable","name":"","type":"address"}],"stateMutability":"view","type":"function"},{"inputs":[],"name":"availableRoom","outputs":[{"internalType":"uint256","name":"SoloRooms","type":"uint256"},{"internalType":"uint256","name":"DuoRooms","type":"uint256"},{"internalType":"uint256","name":"FamilyRooms","type":"uint256"}],"stateMutability":"view","type":"function"},{"inputs":[{"internalType":"address","name":"_newReceptionist","type":"address"}],"name":"changeReceptionist","outputs":[],"stateMutability":"nonpayable","type":"function"},{"inputs":[{"internalType":"uint256","name":"_roomTypeCode","type":"uint256"}],"name":"checkIn","outputs":[],"stateMutability":"payable","type":"function"},{"inputs":[],"name":"checkOut","outputs":[],"stateMutability":"payable","type":"function"},{"inputs":[{"internalType":"address","name":"","type":"address"}],"name":"customerRoomType","outputs":[{"internalType":"uint256","name":"","type":"uint256"}],"stateMutability":"view","type":"function"},{"inputs":[{"internalType":"uint256","name":"","type":"uint256"}],"name":"duoCustomers","outputs":[{"internalType":"address","name":"","type":"address"}],"stateMutability":"view","type":"function"},{"inputs":[],"name":"duoRooms","outputs":[{"internalType":"string","name":"roomType","type":"string"},{"internalType":"uint256","name":"roomTypeCode","type":"uint256"},{"internalType":"uint256","name":"availableRoom","type":"uint256"},{"internalType":"uint256","name":"price","type":"uint256"},{"internalType":"uint256","name":"rentPerHours","type":"uint256"}],"stateMutability":"view","type":"function"},{"inputs":[{"internalType":"uint256","name":"","type":"uint256"}],"name":"familyCustomers","outputs":[{"internalType":"address","name":"","type":"address"}],"stateMutability":"view","type":"function"},{"inputs":[],"name":"familyRooms","outputs":[{"internalType":"string","name":"roomType","type":"string"},{"internalType":"uint256","name":"roomTypeCode","type":"uint256"},{"internalType":"uint256","name":"availableRoom","type":"uint256"},{"internalType":"uint256","name":"price","type":"uint256"},{"internalType":"uint256","name":"rentPerHours","type":"uint256"}],"stateMutability":"view","type":"function"},{"inputs":[],"name":"receiptionist","outputs":[{"internalType":"address","name":"","type":"address"}],"stateMutability":"view","type":"function"},{"inputs":[{"internalType":"uint256","name":"","type":"uint256"}],"name":"roomRent","outputs":[{"internalType":"uint256","name":"","type":"uint256"}],"stateMutability":"view","type":"function"},{"inputs":[{"internalType":"uint256","name":"","type":"uint256"}],"name":"soloCustomers","outputs":[{"internalType":"address","name":"","type":"address"}],"stateMutability":"view","type":"function"},{"inputs":[],"name":"soloRooms","outputs":[{"internalType":"string","name":"roomType","type":"string"},{"internalType":"uint256","name":"roomTypeCode","type":"uint256"},{"internalType":"uint256","name":"availableRoom","type":"uint256"},{"internalType":"uint256","name":"price","type":"uint256"},{"internalType":"uint256","name":"rentPerHours","type":"uint256"}],"stateMutability":"view","type":"function"},{"inputs":[],"name":"viewRent","outputs":[{"internalType":"uint256","name":"_RENT","type":"uint256"}],"stateMutability":"view","type":"function"},{"inputs":[{"internalType":"address","name":"_addressOfCustomer","type":"address"}],"name":"viewRent","outputs":[{"internalType":"uint256","name":"_rentOfTheCustomer","type":"uint256"}],"stateMutability":"view","type":"function"},{"inputs":[],"name":"viewRevenue","outputs":[{"internalType":"uint256","name":"_revenue","type":"uint256"}],"stateMutability":"view","type":"function"},{"inputs":[],"name":"withdrawRevenue","outputs":[],"stateMutability":"payable","type":"function"}],"evm":{"bytecode":{"linkReferences":{},"object":"60806040526040518060a001604052806040518060400160405280600481526020017f536f6c6f00000000000000000000000000000000000000000000000000000000815250815260200160018152602001600f8152602001670de0b6b3a764000081526020016064815250600860008201518160000190816200008491906200058a565b506020820151816001015560408201518160020155606082015181600301556080820151816004015550506040518060a001604052806040518060400160405280600381526020017f44756f0000000000000000000000000000000000000000000000000000000000815250815260200160028152602001600a8152602001671bc16d674ec80000815260200160c8815250600d60008201518160000190816200012f91906200058a565b506020820151816001015560408201518160020155606082015181600301556080820151816004015550506040518060a001604052806040518060400160405280600681526020017f46616d696c790000000000000000000000000000000000000000000000000000815250815260200160038152602001600581526020016729a2241af62c0000815260200161012c81525060126000820151816000019081620001db91906200058a565b506020820151816001015560408201518160020155606082015181600301556080820151816004015550503480156200021357600080fd5b5060405162002675380380620026758339818101604052810190620002399190620006db565b336000806101000a81548173ffffffffffffffffffffffffffffffffffffffff021916908373ffffffffffffffffffffffffffffffffffffffff16021790555080600160006101000a81548173ffffffffffffffffffffffffffffffffffffffff021916908373ffffffffffffffffffffffffffffffffffffffff160217905550606460076000600181526020019081526020016000208190555060c860076000600281526020019081526020016000208190555061012c600760006003815260200190815260200160002081905550506200070d565b600081519050919050565b7f4e487b7100000000000000000000000000000000000000000000000000000000600052604160045260246000fd5b7f4e487b7100000000000000000000000000000000000000000000000000000000600052602260045260246000fd5b600060028204905060018216806200039257607f821691505b602082108103620003a857620003a76200034a565b5b50919050565b60008190508160005260206000209050919050565b60006020601f8301049050919050565b600082821b905092915050565b600060088302620004127fffffffffffffffffffffffffffffffffffffffffffffffffffffffffffffffff82620003d3565b6200041e8683620003d3565b95508019841693508086168417925050509392505050565b6000819050919050565b6000819050919050565b60006200046b620004656200045f8462000436565b62000440565b62000436565b9050919050565b6000819050919050565b62000487836200044a565b6200049f620004968262000472565b848454620003e0565b825550505050565b600090565b620004b6620004a7565b620004c38184846200047c565b505050565b5b81811015620004eb57620004df600082620004ac565b600181019050620004c9565b5050565b601f8211156200053a576200050481620003ae565b6200050f84620003c3565b810160208510156200051f578190505b620005376200052e85620003c3565b830182620004c8565b50505b505050565b600082821c905092915050565b60006200055f600019846008026200053f565b1980831691505092915050565b60006200057a83836200054c565b9150826002028217905092915050565b620005958262000310565b67ffffffffffffffff811115620005b157620005b06200031b565b5b620005bd825462000379565b620005ca828285620004ef565b600060209050601f831160018114620006025760008415620005ed578287015190505b620005f985826200056c565b86555062000669565b601f1984166200061286620003ae565b60005b828110156200063c5784890151825560018201915060208501945060208101905062000615565b868310156200065c578489015162000658601f8916826200054c565b8355505b6001600288020188555050505b505050505050565b600080fd5b600073ffffffffffffffffffffffffffffffffffffffff82169050919050565b6000620006a38262000676565b9050919050565b620006b58162000696565b8114620006c157600080fd5b50565b600081519050620006d581620006aa565b92915050565b600060208284031215620006f457620006f362000671565b5b60006200070484828501620006c4565b91505092915050565b611f58806200071d6000396000f3fe6080604052600436106101135760003560e01c8063b4a99a4e116100a0578063cc65878311610064578063cc65878314610392578063cebb934f146103cf578063e95a644f1461040c578063f1f87b0614610428578063fd13b48c1461045757610113565b8063b4a99a4e146102c4578063b7db0d81146102ef578063ca6ca4e01461031c578063cb84adeb1461034b578063cba5751c1461038857610113565b80634f573cb2116100e75780634f573cb2146101d85780638760d6c1146101e25780638c27db981461021f57806390cd25681461024a578063921764d61461028757610113565b80629a52821461011857806301ebd3c31461015557806312240ebe146101845780631729a801146101af575b600080fd5b34801561012457600080fd5b5061013f600480360381019061013a91906116a5565b610482565b60405161014c9190611713565b60405180910390f35b34801561016157600080fd5b5061016a6104c1565b60405161017b9594939291906117cd565b60405180910390f35b34801561019057600080fd5b5061019961056d565b6040516101a69190611827565b60405180910390f35b3480156101bb57600080fd5b506101d660048036038101906101d1919061186e565b6107a1565b005b6101e0610873565b005b3480156101ee57600080fd5b506102096004803603810190610204919061186e565b610970565b6040516102169190611827565b60405180910390f35b34801561022b57600080fd5b50610234610aea565b6040516102419190611827565b60405180910390f35b34801561025657600080fd5b50610271600480360381019061026c919061189b565b610b81565b60405161027e9190611827565b60405180910390f35b34801561029357600080fd5b506102ae60048036038101906102a991906116a5565b610ba6565b6040516102bb9190611713565b60405180910390f35b3480156102d057600080fd5b506102d9610be5565b6040516102e691906118fc565b60405180910390f35b3480156102fb57600080fd5b50610304610c09565b60405161031393929190611917565b60405180910390f35b34801561032857600080fd5b50610331610c2b565b6040516103429594939291906117cd565b60405180910390f35b34801561035757600080fd5b50610372600480360381019061036d91906116a5565b610cd7565b60405161037f9190611713565b60405180910390f35b610390610d16565b005b34801561039e57600080fd5b506103b960048036038101906103b491906116a5565b61104e565b6040516103c69190611827565b60405180910390f35b3480156103db57600080fd5b506103f660048036038101906103f1919061186e565b611066565b6040516104039190611827565b60405180910390f35b610426600480360381019061042191906116a5565b61107e565b005b34801561043457600080fd5b5061043d611598565b60405161044e9594939291906117cd565b60405180910390f35b34801561046357600080fd5b5061046c611644565b6040516104799190611713565b60405180910390f35b6003818154811061049257600080fd5b906000526020600020016000915054906101000a900473ffffffffffffffffffffffffffffffffffffffff1681565b60128060000180546104d29061197d565b80601f01602080910402602001604051908101604052809291908181526020018280546104fe9061197d565b801561054b5780601f106105205761010080835404028352916020019161054b565b820191906000526020600020905b81548152906001019060200180831161052e57829003601f168201915b5050505050908060010154908060020154908060030154908060040154905085565b60006001600560003373ffffffffffffffffffffffffffffffffffffffff1673ffffffffffffffffffffffffffffffffffffffff1681526020019081526020016000205414806105fc57506002600560003373ffffffffffffffffffffffffffffffffffffffff1673ffffffffffffffffffffffffffffffffffffffff16815260200190815260200160002054145b8061064657506001600560003373ffffffffffffffffffffffffffffffffffffffff1673ffffffffffffffffffffffffffffffffffffffff16815260200190815260200160002054145b610685576040517f08c379a000000000000000000000000000000000000000000000000000000000815260040161067c906119fa565b60405180910390fd5b600060066000600560003373ffffffffffffffffffffffffffffffffffffffff1673ffffffffffffffffffffffffffffffffffffffff16815260200190815260200160002054815260200190815260200160002060003373ffffffffffffffffffffffffffffffffffffffff1673ffffffffffffffffffffffffffffffffffffffff16815260200190815260200160002054426107229190611a49565b90506000610e10826107349190611aac565b905060008160076000600560003373ffffffffffffffffffffffffffffffffffffffff1673ffffffffffffffffffffffffffffffffffffffff168152602001908152602001600020548152602001908152602001600020546107969190611add565b905080935050505090565b60008054906101000a900473ffffffffffffffffffffffffffffffffffffffff1673ffffffffffffffffffffffffffffffffffffffff163373ffffffffffffffffffffffffffffffffffffffff161461082f576040517f08c379a000000000000000000000000000000000000000000000000000000000815260040161082690611b91565b60405180910390fd5b80600160006101000a81548173ffffffffffffffffffffffffffffffffffffffff021916908373ffffffffffffffffffffffffffffffffffffffff16021790555050565b60008054906101000a900473ffffffffffffffffffffffffffffffffffffffff1673ffffffffffffffffffffffffffffffffffffffff163373ffffffffffffffffffffffffffffffffffffffff1614610901576040517f08c379a00000000000000000000000000000000000000000000000000000000081526004016108f890611b91565b60405180910390fd5b600047905060008054906101000a900473ffffffffffffffffffffffffffffffffffffffff1673ffffffffffffffffffffffffffffffffffffffff166108fc829081150290604051600060405180830381858888f1935050505015801561096c573d6000803e3d6000fd5b5050565b6000600160009054906101000a900473ffffffffffffffffffffffffffffffffffffffff1673ffffffffffffffffffffffffffffffffffffffff163373ffffffffffffffffffffffffffffffffffffffff16146109cc57600080fd5b600060066000600560008673ffffffffffffffffffffffffffffffffffffffff1673ffffffffffffffffffffffffffffffffffffffff16815260200190815260200160002054815260200190815260200160002060008473ffffffffffffffffffffffffffffffffffffffff1673ffffffffffffffffffffffffffffffffffffffff1681526020019081526020016000205442610a699190611a49565b90506000610e1082610a7b9190611aac565b905060008160076000600560008973ffffffffffffffffffffffffffffffffffffffff1673ffffffffffffffffffffffffffffffffffffffff16815260200190815260200160002054815260200190815260200160002054610add9190611add565b9050809350505050919050565b60008060009054906101000a900473ffffffffffffffffffffffffffffffffffffffff1673ffffffffffffffffffffffffffffffffffffffff163373ffffffffffffffffffffffffffffffffffffffff1614610b7b576040517f08c379a0000000000000000000000000000000000000000000000000000000008152600401610b7290611b91565b60405180910390fd5b47905090565b6006602052816000526040600020602052806000526040600020600091509150505481565b60048181548110610bb657600080fd5b906000526020600020016000915054906101000a900473ffffffffffffffffffffffffffffffffffffffff1681565b60008054906101000a900473ffffffffffffffffffffffffffffffffffffffff1681565b6000806000600860020154600d60020154601260020154925092509250909192565b6008806000018054610c3c9061197d565b80601f0160208091040260200160405190810160405280929190818152602001828054610c689061197d565b8015610cb55780601f10610c8a57610100808354040283529160200191610cb5565b820191906000526020600020905b815481529060010190602001808311610c9857829003601f168201915b5050505050908060010154908060020154908060030154908060040154905085565b60028181548110610ce757600080fd5b906000526020600020016000915054906101000a900473ffffffffffffffffffffffffffffffffffffffff1681565b6001600560003373ffffffffffffffffffffffffffffffffffffffff1673ffffffffffffffffffffffffffffffffffffffff168152602001908152602001600020541480610da357506002600560003373ffffffffffffffffffffffffffffffffffffffff1673ffffffffffffffffffffffffffffffffffffffff16815260200190815260200160002054145b80610ded57506001600560003373ffffffffffffffffffffffffffffffffffffffff1673ffffffffffffffffffffffffffffffffffffffff16815260200190815260200160002054145b610e2c576040517f08c379a0000000000000000000000000000000000000000000000000000000008152600401610e23906119fa565b60405180910390fd5b6001600560003373ffffffffffffffffffffffffffffffffffffffff1673ffffffffffffffffffffffffffffffffffffffff1681526020019081526020016000205403610ee2576000610e7d61056d565b9050803414610ec1576040517f08c379a0000000000000000000000000000000000000000000000000000000008152600401610eb890611c23565b60405180910390fd5b60086002016000815480929190610ed790611c43565b91905055505061104c565b6002600560003373ffffffffffffffffffffffffffffffffffffffff1673ffffffffffffffffffffffffffffffffffffffff1681526020019081526020016000205403610f98576000610f3361056d565b9050803414610f77576040517f08c379a0000000000000000000000000000000000000000000000000000000008152600401610f6e90611c23565b60405180910390fd5b60086002016000815480929190610f8d90611c43565b91905055505061104b565b6002600560003373ffffffffffffffffffffffffffffffffffffffff1673ffffffffffffffffffffffffffffffffffffffff168152602001908152602001600020540361104a576000610fe961056d565b905080341461102d576040517f08c379a000000000000000000000000000000000000000000000000000000000815260040161102490611c23565b60405180910390fd5b6008600201600081548092919061104390611c43565b9190505550505b5b5b565b60076020528060005260406000206000915090505481565b60056020528060005260406000206000915090505481565b60018103611231576000600860020154116110ce576040517f08c379a00000000000000000000000000000000000000000000000000000000081526004016110c590611d23565b60405180910390fd5b6008600301543414611115576040517f08c379a000000000000000000000000000000000000000000000000000000000815260040161110c90611db5565b60405180910390fd5b80600560003373ffffffffffffffffffffffffffffffffffffffff1673ffffffffffffffffffffffffffffffffffffffff16815260200190815260200160002081905550426006600083815260200190815260200160002060003373ffffffffffffffffffffffffffffffffffffffff1673ffffffffffffffffffffffffffffffffffffffff168152602001908152602001600020819055506002339080600181540180825580915050600190039060005260206000200160009091909190916101000a81548173ffffffffffffffffffffffffffffffffffffffff021916908373ffffffffffffffffffffffffffffffffffffffff1602179055506008600201600081548092919061122790611dd5565b9190505550611595565b600281036113e4576000600d6002015411611281576040517f08c379a000000000000000000000000000000000000000000000000000000000815260040161127890611d23565b60405180910390fd5b600d6003015434146112c8576040517f08c379a00000000000000000000000000000000000000000000000000000000081526004016112bf90611e70565b60405180910390fd5b80600560003373ffffffffffffffffffffffffffffffffffffffff1673ffffffffffffffffffffffffffffffffffffffff16815260200190815260200160002081905550426006600083815260200190815260200160002060003373ffffffffffffffffffffffffffffffffffffffff1673ffffffffffffffffffffffffffffffffffffffff168152602001908152602001600020819055506003339080600181540180825580915050600190039060005260206000200160009091909190916101000a81548173ffffffffffffffffffffffffffffffffffffffff021916908373ffffffffffffffffffffffffffffffffffffffff160217905550600d60020160008154809291906113da90611dd5565b9190505550611594565b6003810361159357600060126002015411611434576040517f08c379a000000000000000000000000000000000000000000000000000000000815260040161142b90611d23565b60405180910390fd5b601260030154341461147b576040517f08c379a000000000000000000000000000000000000000000000000000000000815260040161147290611f02565b60405180910390fd5b80600560003373ffffffffffffffffffffffffffffffffffffffff1673ffffffffffffffffffffffffffffffffffffffff16815260200190815260200160002081905550426006600083815260200190815260200160002060003373ffffffffffffffffffffffffffffffffffffffff1673ffffffffffffffffffffffffffffffffffffffff168152602001908152602001600020819055506004339080600181540180825580915050600190039060005260206000200160009091909190916101000a81548173ffffffffffffffffffffffffffffffffffffffff021916908373ffffffffffffffffffffffffffffffffffffffff1602179055506012600201600081548092919061158d90611dd5565b91905055505b5b5b50565b600d8060000180546115a99061197d565b80601f01602080910402602001604051908101604052809291908181526020018280546115d59061197d565b80156116225780601f106115f757610100808354040283529160200191611622565b820191906000526020600020905b81548152906001019060200180831161160557829003601f168201915b5050505050908060010154908060020154908060030154908060040154905085565b600160009054906101000a900473ffffffffffffffffffffffffffffffffffffffff1681565b600080fd5b6000819050919050565b6116828161166f565b811461168d57600080fd5b50565b60008135905061169f81611679565b92915050565b6000602082840312156116bb576116ba61166a565b5b60006116c984828501611690565b91505092915050565b600073ffffffffffffffffffffffffffffffffffffffff82169050919050565b60006116fd826116d2565b9050919050565b61170d816116f2565b82525050565b60006020820190506117286000830184611704565b92915050565b600081519050919050565b600082825260208201905092915050565b60005b8381101561176857808201518184015260208101905061174d565b60008484015250505050565b6000601f19601f8301169050919050565b60006117908261172e565b61179a8185611739565b93506117aa81856020860161174a565b6117b381611774565b840191505092915050565b6117c78161166f565b82525050565b600060a08201905081810360008301526117e78188611785565b90506117f660208301876117be565b61180360408301866117be565b61181060608301856117be565b61181d60808301846117be565b9695505050505050565b600060208201905061183c60008301846117be565b92915050565b61184b816116f2565b811461185657600080fd5b50565b60008135905061186881611842565b92915050565b6000602082840312156118845761188361166a565b5b600061189284828501611859565b91505092915050565b600080604083850312156118b2576118b161166a565b5b60006118c085828601611690565b92505060206118d185828601611859565b9150509250929050565b60006118e6826116d2565b9050919050565b6118f6816118db565b82525050565b600060208201905061191160008301846118ed565b92915050565b600060608201905061192c60008301866117be565b61193960208301856117be565b61194660408301846117be565b949350505050565b7f4e487b7100000000000000000000000000000000000000000000000000000000600052602260045260246000fd5b6000600282049050600182168061199557607f821691505b6020821081036119a8576119a761194e565b5b50919050565b7f4f6e6c7920437573746f6d65722063616e206163636573732074686973000000600082015250565b60006119e4601d83611739565b91506119ef826119ae565b602082019050919050565b60006020820190508181036000830152611a13816119d7565b9050919050565b7f4e487b7100000000000000000000000000000000000000000000000000000000600052601160045260246000fd5b6000611a548261166f565b9150611a5f8361166f565b9250828203905081811115611a7757611a76611a1a565b5b92915050565b7f4e487b7100000000000000000000000000000000000000000000000000000000600052601260045260246000fd5b6000611ab78261166f565b9150611ac28361166f565b925082611ad257611ad1611a7d565b5b828204905092915050565b6000611ae88261166f565b9150611af38361166f565b9250828202611b018161166f565b91508282048414831517611b1857611b17611a1a565b5b5092915050565b7f4f6e6c79204f776e65722063616e2061636365737320746869732066756e637460008201527f696f6e0000000000000000000000000000000000000000000000000000000000602082015250565b6000611b7b602383611739565b9150611b8682611b1f565b604082019050919050565b60006020820190508181036000830152611baa81611b6e565b9050919050565b7f506c6561736520636865636b20796f75722072656e7420616e64207468656e2060008201527f7061792074686520616d6f756e7420656c696769626c65000000000000000000602082015250565b6000611c0d603783611739565b9150611c1882611bb1565b604082019050919050565b60006020820190508181036000830152611c3c81611c00565b9050919050565b6000611c4e8261166f565b91507fffffffffffffffffffffffffffffffffffffffffffffffffffffffffffffffff8203611c8057611c7f611a1a565b5b600182019050919050565b7f4e6f20526f6f6d7320617661696c61626c6520666f722074686973207479706560008201527f2c20506c6561736520436865636b204f746865722054797065206f6620526f6f60208201527f6d73000000000000000000000000000000000000000000000000000000000000604082015250565b6000611d0d604283611739565b9150611d1882611c8b565b606082019050919050565b60006020820190508181036000830152611d3c81611d00565b9050919050565b7f506c6561736520656e74657220612056616c696420616d6f756e742c20536f6c60008201527f6f20526f6f6d20636f7374203120457468657200000000000000000000000000602082015250565b6000611d9f603383611739565b9150611daa82611d43565b604082019050919050565b60006020820190508181036000830152611dce81611d92565b9050919050565b6000611de08261166f565b915060008203611df357611df2611a1a565b5b600182039050919050565b7f506c6561736520656e74657220612056616c696420616d6f756e742c2064756f60008201527f20526f6f6d20636f737420322045746865720000000000000000000000000000602082015250565b6000611e5a603283611739565b9150611e6582611dfe565b604082019050919050565b60006020820190508181036000830152611e8981611e4d565b9050919050565b7f506c6561736520656e74657220612056616c696420616d6f756e742c2066616d60008201527f696c7920526f6f6d20636f737420332045746865720000000000000000000000602082015250565b6000611eec603583611739565b9150611ef782611e90565b604082019050919050565b60006020820190508181036000830152611f1b81611edf565b905091905056fea2646970667358221220d2dd329d2a947df98a8f31e64ea354a8c7d036ffbfc50032b51b3446add75ea464736f6c63430008110033","opcodes":"PUSH1 0x80 PUSH1 0x40 MSTORE PUSH1 0x40 MLOAD DUP1 PUSH1 0xA0 ADD PUSH1 0x40 MSTORE DUP1 PUSH1 0x40 MLOAD DUP1 PUSH1 0x40 ADD PUSH1 0x40 MSTORE DUP1 PUSH1 0x4 DUP2 MSTORE PUSH1 0x20 ADD PUSH32 0x536F6C6F00000000000000000000000000000000000000000000000000000000 DUP2 MSTORE POP DUP2 MSTORE PUSH1 0x20 ADD PUSH1 0x1 DUP2 MSTORE PUSH1 0x20 ADD PUSH1 0xF DUP2 MSTORE PUSH1 0x20 ADD PUSH8 0xDE0B6B3A7640000 DUP2 MSTORE PUSH1 0x20 ADD PUSH1 0x64 DUP2 MSTORE POP PUSH1 0x8 PUSH1 0x0 DUP3 ADD MLOAD DUP2 PUSH1 0x0 ADD SWAP1 DUP2 PUSH3 0x84 SWAP2 SWAP1 PUSH3 0x58A JUMP JUMPDEST POP PUSH1 0x20 DUP3 ADD MLOAD DUP2 PUSH1 0x1 ADD SSTORE PUSH1 0x40 DUP3 ADD MLOAD DUP2 PUSH1 0x2 ADD SSTORE PUSH1 0x60 DUP3 ADD MLOAD DUP2 PUSH1 0x3 ADD SSTORE PUSH1 0x80 DUP3 ADD MLOAD DUP2 PUSH1 0x4 ADD SSTORE POP POP PUSH1 0x40 MLOAD DUP1 PUSH1 0xA0 ADD PUSH1 0x40 MSTORE DUP1 PUSH1 0x40 MLOAD DUP1 PUSH1 0x40 ADD PUSH1 0x40 MSTORE DUP1 PUSH1 0x3 DUP2 MSTORE PUSH1 0x20 ADD PUSH32 0x44756F0000000000000000000000000000000000000000000000000000000000 DUP2 MSTORE POP DUP2 MSTORE PUSH1 0x20 ADD PUSH1 0x2 DUP2 MSTORE PUSH1 0x20 ADD PUSH1 0xA DUP2 MSTORE PUSH1 0x20 ADD PUSH8 0x1BC16D674EC80000 DUP2 MSTORE PUSH1 0x20 ADD PUSH1 0xC8 DUP2 MSTORE POP PUSH1 0xD PUSH1 0x0 DUP3 ADD MLOAD DUP2 PUSH1 0x0 ADD SWAP1 DUP2 PUSH3 0x12F SWAP2 SWAP1 PUSH3 0x58A JUMP JUMPDEST POP PUSH1 0x20 DUP3 ADD MLOAD DUP2 PUSH1 0x1 ADD SSTORE PUSH1 0x40 DUP3 ADD MLOAD DUP2 PUSH1 0x2 ADD SSTORE PUSH1 0x60 DUP3 ADD MLOAD DUP2 PUSH1 0x3 ADD SSTORE PUSH1 0x80 DUP3 ADD MLOAD DUP2 PUSH1 0x4 ADD SSTORE POP POP PUSH1 0x40 MLOAD DUP1 PUSH1 0xA0 ADD PUSH1 0x40 MSTORE DUP1 PUSH1 0x40 MLOAD DUP1 PUSH1 0x40 ADD PUSH1 0x40 MSTORE DUP1 PUSH1 0x6 DUP2 MSTORE PUSH1 0x20 ADD PUSH32 0x46616D696C790000000000000000000000000000000000000000000000000000 DUP2 MSTORE POP DUP2 MSTORE PUSH1 0x20 ADD PUSH1 0x3 DUP2 MSTORE PUSH1 0x20 ADD PUSH1 0x5 DUP2 MSTORE PUSH1 0x20 ADD PUSH8 0x29A2241AF62C0000 DUP2 MSTORE PUSH1 0x20 ADD PUSH2 0x12C DUP2 MSTORE POP PUSH1 0x12 PUSH1 0x0 DUP3 ADD MLOAD DUP2 PUSH1 0x0 ADD SWAP1 DUP2 PUSH3 0x1DB SWAP2 SWAP1 PUSH3 0x58A JUMP JUMPDEST POP PUSH1 0x20 DUP3 ADD MLOAD DUP2 PUSH1 0x1 ADD SSTORE PUSH1 0x40 DUP3 ADD MLOAD DUP2 PUSH1 0x2 ADD SSTORE PUSH1 0x60 DUP3 ADD MLOAD DUP2 PUSH1 0x3 ADD SSTORE PUSH1 0x80 DUP3 ADD MLOAD DUP2 PUSH1 0x4 ADD SSTORE POP POP CALLVALUE DUP1 ISZERO PUSH3 0x213 JUMPI PUSH1 0x0 DUP1 REVERT JUMPDEST POP PUSH1 0x40 MLOAD PUSH3 0x2675 CODESIZE SUB DUP1 PUSH3 0x2675 DUP4 CODECOPY DUP2 DUP2 ADD PUSH1 0x40 MSTORE DUP2 ADD SWAP1 PUSH3 0x239 SWAP2 SWAP1 PUSH3 0x6DB JUMP JUMPDEST CALLER PUSH1 0x0 DUP1 PUSH2 0x100 EXP DUP2 SLOAD DUP2 PUSH20 0xFFFFFFFFFFFFFFFFFFFFFFFFFFFFFFFFFFFFFFFF MUL NOT AND SWAP1 DUP4 PUSH20 0xFFFFFFFFFFFFFFFFFFFFFFFFFFFFFFFFFFFFFFFF AND MUL OR SWAP1 SSTORE POP DUP1 PUSH1 0x1 PUSH1 0x0 PUSH2 0x100 EXP DUP2 SLOAD DUP2 PUSH20 0xFFFFFFFFFFFFFFFFFFFFFFFFFFFFFFFFFFFFFFFF MUL NOT AND SWAP1 DUP4 PUSH20 0xFFFFFFFFFFFFFFFFFFFFFFFFFFFFFFFFFFFFFFFF AND MUL OR SWAP1 SSTORE POP PUSH1 0x64 PUSH1 0x7 PUSH1 0x0 PUSH1 0x1 DUP2 MSTORE PUSH1 0x20 ADD SWAP1 DUP2 MSTORE PUSH1 0x20 ADD PUSH1 0x0 KECCAK256 DUP2 SWAP1 SSTORE POP PUSH1 0xC8 PUSH1 0x7 PUSH1 0x0 PUSH1 0x2 DUP2 MSTORE PUSH1 0x20 ADD SWAP1 DUP2 MSTORE PUSH1 0x20 ADD PUSH1 0x0 KECCAK256 DUP2 SWAP1 SSTORE POP PUSH2 0x12C PUSH1 0x7 PUSH1 0x0 PUSH1 0x3 DUP2 MSTORE PUSH1 0x20 ADD SWAP1 DUP2 MSTORE PUSH1 0x20 ADD PUSH1 0x0 KECCAK256 DUP2 SWAP1 SSTORE POP POP PUSH3 0x70D JUMP JUMPDEST PUSH1 0x0 DUP2 MLOAD SWAP1 POP SWAP2 SWAP1 POP JUMP JUMPDEST PUSH32 0x4E487B7100000000000000000000000000000000000000000000000000000000 PUSH1 0x0 MSTORE PUSH1 0x41 PUSH1 0x4 MSTORE PUSH1 0x24 PUSH1 0x0 REVERT JUMPDEST PUSH32 0x4E487B7100000000000000000000000000000000000000000000000000000000 PUSH1 0x0 MSTORE PUSH1 0x22 PUSH1 0x4 MSTORE PUSH1 0x24 PUSH1 0x0 REVERT JUMPDEST PUSH1 0x0 PUSH1 0x2 DUP3 DIV SWAP1 POP PUSH1 0x1 DUP3 AND DUP1 PUSH3 0x392 JUMPI PUSH1 0x7F DUP3 AND SWAP2 POP JUMPDEST PUSH1 0x20 DUP3 LT DUP2 SUB PUSH3 0x3A8 JUMPI PUSH3 0x3A7 PUSH3 0x34A JUMP JUMPDEST JUMPDEST POP SWAP2 SWAP1 POP JUMP JUMPDEST PUSH1 0x0 DUP2 SWAP1 POP DUP2 PUSH1 0x0 MSTORE PUSH1 0x20 PUSH1 0x0 KECCAK256 SWAP1 POP SWAP2 SWAP1 POP JUMP JUMPDEST PUSH1 0x0 PUSH1 0x20 PUSH1 0x1F DUP4 ADD DIV SWAP1 POP SWAP2 SWAP1 POP JUMP JUMPDEST PUSH1 0x0 DUP3 DUP3 SHL SWAP1 POP SWAP3 SWAP2 POP POP JUMP JUMPDEST PUSH1 0x0 PUSH1 0x8 DUP4 MUL PUSH3 0x412 PUSH32 0xFFFFFFFFFFFFFFFFFFFFFFFFFFFFFFFFFFFFFFFFFFFFFFFFFFFFFFFFFFFFFFFF DUP3 PUSH3 0x3D3 JUMP JUMPDEST PUSH3 0x41E DUP7 DUP4 PUSH3 0x3D3 JUMP JUMPDEST SWAP6 POP DUP1 NOT DUP5 AND SWAP4 POP DUP1 DUP7 AND DUP5 OR SWAP3 POP POP POP SWAP4 SWAP3 POP POP POP JUMP JUMPDEST PUSH1 0x0 DUP2 SWAP1 POP SWAP2 SWAP1 POP JUMP JUMPDEST PUSH1 0x0 DUP2 SWAP1 POP SWAP2 SWAP1 POP JUMP JUMPDEST PUSH1 0x0 PUSH3 0x46B PUSH3 0x465 PUSH3 0x45F DUP5 PUSH3 0x436 JUMP JUMPDEST PUSH3 0x440 JUMP JUMPDEST PUSH3 0x436 JUMP JUMPDEST SWAP1 POP SWAP2 SWAP1 POP JUMP JUMPDEST PUSH1 0x0 DUP2 SWAP1 POP SWAP2 SWAP1 POP JUMP JUMPDEST PUSH3 0x487 DUP4 PUSH3 0x44A JUMP JUMPDEST PUSH3 0x49F PUSH3 0x496 DUP3 PUSH3 0x472 JUMP JUMPDEST DUP5 DUP5 SLOAD PUSH3 0x3E0 JUMP JUMPDEST DUP3 SSTORE POP POP POP POP JUMP JUMPDEST PUSH1 0x0 SWAP1 JUMP JUMPDEST PUSH3 0x4B6 PUSH3 0x4A7 JUMP JUMPDEST PUSH3 0x4C3 DUP2 DUP5 DUP5 PUSH3 0x47C JUMP JUMPDEST POP POP POP JUMP JUMPDEST JUMPDEST DUP2 DUP2 LT ISZERO PUSH3 0x4EB JUMPI PUSH3 0x4DF PUSH1 0x0 DUP3 PUSH3 0x4AC JUMP JUMPDEST PUSH1 0x1 DUP2 ADD SWAP1 POP PUSH3 0x4C9 JUMP JUMPDEST POP POP JUMP JUMPDEST PUSH1 0x1F DUP3 GT ISZERO PUSH3 0x53A JUMPI PUSH3 0x504 DUP2 PUSH3 0x3AE JUMP JUMPDEST PUSH3 0x50F DUP5 PUSH3 0x3C3 JUMP JUMPDEST DUP2 ADD PUSH1 0x20 DUP6 LT ISZERO PUSH3 0x51F JUMPI DUP2 SWAP1 POP JUMPDEST PUSH3 0x537 PUSH3 0x52E DUP6 PUSH3 0x3C3 JUMP JUMPDEST DUP4 ADD DUP3 PUSH3 0x4C8 JUMP JUMPDEST POP POP JUMPDEST POP POP POP JUMP JUMPDEST PUSH1 0x0 DUP3 DUP3 SHR SWAP1 POP SWAP3 SWAP2 POP POP JUMP JUMPDEST PUSH1 0x0 PUSH3 0x55F PUSH1 0x0 NOT DUP5 PUSH1 0x8 MUL PUSH3 0x53F JUMP JUMPDEST NOT DUP1 DUP4 AND SWAP2 POP POP SWAP3 SWAP2 POP POP JUMP JUMPDEST PUSH1 0x0 PUSH3 0x57A DUP4 DUP4 PUSH3 0x54C JUMP JUMPDEST SWAP2 POP DUP3 PUSH1 0x2 MUL DUP3 OR SWAP1 POP SWAP3 SWAP2 POP POP JUMP JUMPDEST PUSH3 0x595 DUP3 PUSH3 0x310 JUMP JUMPDEST PUSH8 0xFFFFFFFFFFFFFFFF DUP2 GT ISZERO PUSH3 0x5B1 JUMPI PUSH3 0x5B0 PUSH3 0x31B JUMP JUMPDEST JUMPDEST PUSH3 0x5BD DUP3 SLOAD PUSH3 0x379 JUMP JUMPDEST PUSH3 0x5CA DUP3 DUP3 DUP6 PUSH3 0x4EF JUMP JUMPDEST PUSH1 0x0 PUSH1 0x20 SWAP1 POP PUSH1 0x1F DUP4 GT PUSH1 0x1 DUP2 EQ PUSH3 0x602 JUMPI PUSH1 0x0 DUP5 ISZERO PUSH3 0x5ED JUMPI DUP3 DUP8 ADD MLOAD SWAP1 POP JUMPDEST PUSH3 0x5F9 DUP6 DUP3 PUSH3 0x56C JUMP JUMPDEST DUP7 SSTORE POP PUSH3 0x669 JUMP JUMPDEST PUSH1 0x1F NOT DUP5 AND PUSH3 0x612 DUP7 PUSH3 0x3AE JUMP JUMPDEST PUSH1 0x0 JUMPDEST DUP3 DUP2 LT ISZERO PUSH3 0x63C JUMPI DUP5 DUP10 ADD MLOAD DUP3 SSTORE PUSH1 0x1 DUP3 ADD SWAP2 POP PUSH1 0x20 DUP6 ADD SWAP5 POP PUSH1 0x20 DUP2 ADD SWAP1 POP PUSH3 0x615 JUMP JUMPDEST DUP7 DUP4 LT ISZERO PUSH3 0x65C JUMPI DUP5 DUP10 ADD MLOAD PUSH3 0x658 PUSH1 0x1F DUP10 AND DUP3 PUSH3 0x54C JUMP JUMPDEST DUP4 SSTORE POP JUMPDEST PUSH1 0x1 PUSH1 0x2 DUP9 MUL ADD DUP9 SSTORE POP POP POP JUMPDEST POP POP POP POP POP POP JUMP JUMPDEST PUSH1 0x0 DUP1 REVERT JUMPDEST PUSH1 0x0 PUSH20 0xFFFFFFFFFFFFFFFFFFFFFFFFFFFFFFFFFFFFFFFF DUP3 AND SWAP1 POP SWAP2 SWAP1 POP JUMP JUMPDEST PUSH1 0x0 PUSH3 0x6A3 DUP3 PUSH3 0x676 JUMP JUMPDEST SWAP1 POP SWAP2 SWAP1 POP JUMP JUMPDEST PUSH3 0x6B5 DUP2 PUSH3 0x696 JUMP JUMPDEST DUP2 EQ PUSH3 0x6C1 JUMPI PUSH1 0x0 DUP1 REVERT JUMPDEST POP JUMP JUMPDEST PUSH1 0x0 DUP2 MLOAD SWAP1 POP PUSH3 0x6D5 DUP2 PUSH3 0x6AA JUMP JUMPDEST SWAP3 SWAP2 POP POP JUMP JUMPDEST PUSH1 0x0 PUSH1 0x20 DUP3 DUP5 SUB SLT ISZERO PUSH3 0x6F4 JUMPI PUSH3 0x6F3 PUSH3 0x671 JUMP JUMPDEST JUMPDEST PUSH1 0x0 PUSH3 0x704 DUP5 DUP3 DUP6 ADD PUSH3 0x6C4 JUMP JUMPDEST SWAP2 POP POP SWAP3 SWAP2 POP POP JUMP JUMPDEST PUSH2 0x1F58 DUP1 PUSH3 0x71D PUSH1 0x0 CODECOPY PUSH1 0x0 RETURN INVALID PUSH1 0x80 PUSH1 0x40 MSTORE PUSH1 0x4 CALLDATASIZE LT PUSH2 0x113 JUMPI PUSH1 0x0 CALLDATALOAD PUSH1 0xE0 SHR DUP1 PUSH4 0xB4A99A4E GT PUSH2 0xA0 JUMPI DUP1 PUSH4 0xCC658783 GT PUSH2 0x64 JUMPI DUP1 PUSH4 0xCC658783 EQ PUSH2 0x392 JUMPI DUP1 PUSH4 0xCEBB934F EQ PUSH2 0x3CF JUMPI DUP1 PUSH4 0xE95A644F EQ PUSH2 0x40C JUMPI DUP1 PUSH4 0xF1F87B06 EQ PUSH2 0x428 JUMPI DUP1 PUSH4 0xFD13B48C EQ PUSH2 0x457 JUMPI PUSH2 0x113 JUMP JUMPDEST DUP1 PUSH4 0xB4A99A4E EQ PUSH2 0x2C4 JUMPI DUP1 PUSH4 0xB7DB0D81 EQ PUSH2 0x2EF JUMPI DUP1 PUSH4 0xCA6CA4E0 EQ PUSH2 0x31C JUMPI DUP1 PUSH4 0xCB84ADEB EQ PUSH2 0x34B JUMPI DUP1 PUSH4 0xCBA5751C EQ PUSH2 0x388 JUMPI PUSH2 0x113 JUMP JUMPDEST DUP1 PUSH4 0x4F573CB2 GT PUSH2 0xE7 JUMPI DUP1 PUSH4 0x4F573CB2 EQ PUSH2 0x1D8 JUMPI DUP1 PUSH4 0x8760D6C1 EQ PUSH2 0x1E2 JUMPI DUP1 PUSH4 0x8C27DB98 EQ PUSH2 0x21F JUMPI DUP1 PUSH4 0x90CD2568 EQ PUSH2 0x24A JUMPI DUP1 PUSH4 0x921764D6 EQ PUSH2 0x287 JUMPI PUSH2 0x113 JUMP JUMPDEST DUP1 PUSH3 0x9A5282 EQ PUSH2 0x118 JUMPI DUP1 PUSH4 0x1EBD3C3 EQ PUSH2 0x155 JUMPI DUP1 PUSH4 0x12240EBE EQ PUSH2 0x184 JUMPI DUP1 PUSH4 0x1729A801 EQ PUSH2 0x1AF JUMPI JUMPDEST PUSH1 0x0 DUP1 REVERT JUMPDEST CALLVALUE DUP1 ISZERO PUSH2 0x124 JUMPI PUSH1 0x0 DUP1 REVERT JUMPDEST POP PUSH2 0x13F PUSH1 0x4 DUP1 CALLDATASIZE SUB DUP2 ADD SWAP1 PUSH2 0x13A SWAP2 SWAP1 PUSH2 0x16A5 JUMP JUMPDEST PUSH2 0x482 JUMP JUMPDEST PUSH1 0x40 MLOAD PUSH2 0x14C SWAP2 SWAP1 PUSH2 0x1713 JUMP JUMPDEST PUSH1 0x40 MLOAD DUP1 SWAP2 SUB SWAP1 RETURN JUMPDEST CALLVALUE DUP1 ISZERO PUSH2 0x161 JUMPI PUSH1 0x0 DUP1 REVERT JUMPDEST POP PUSH2 0x16A PUSH2 0x4C1 JUMP JUMPDEST PUSH1 0x40 MLOAD PUSH2 0x17B SWAP6 SWAP5 SWAP4 SWAP3 SWAP2 SWAP1 PUSH2 0x17CD JUMP JUMPDEST PUSH1 0x40 MLOAD DUP1 SWAP2 SUB SWAP1 RETURN JUMPDEST CALLVALUE DUP1 ISZERO PUSH2 0x190 JUMPI PUSH1 0x0 DUP1 REVERT JUMPDEST POP PUSH2 0x199 PUSH2 0x56D JUMP JUMPDEST PUSH1 0x40 MLOAD PUSH2 0x1A6 SWAP2 SWAP1 PUSH2 0x1827 JUMP JUMPDEST PUSH1 0x40 MLOAD DUP1 SWAP2 SUB SWAP1 RETURN JUMPDEST CALLVALUE DUP1 ISZERO PUSH2 0x1BB JUMPI PUSH1 0x0 DUP1 REVERT JUMPDEST POP PUSH2 0x1D6 PUSH1 0x4 DUP1 CALLDATASIZE SUB DUP2 ADD SWAP1 PUSH2 0x1D1 SWAP2 SWAP1 PUSH2 0x186E JUMP JUMPDEST PUSH2 0x7A1 JUMP JUMPDEST STOP JUMPDEST PUSH2 0x1E0 PUSH2 0x873 JUMP JUMPDEST STOP JUMPDEST CALLVALUE DUP1 ISZERO PUSH2 0x1EE JUMPI PUSH1 0x0 DUP1 REVERT JUMPDEST POP PUSH2 0x209 PUSH1 0x4 DUP1 CALLDATASIZE SUB DUP2 ADD SWAP1 PUSH2 0x204 SWAP2 SWAP1 PUSH2 0x186E JUMP JUMPDEST PUSH2 0x970 JUMP JUMPDEST PUSH1 0x40 MLOAD PUSH2 0x216 SWAP2 SWAP1 PUSH2 0x1827 JUMP JUMPDEST PUSH1 0x40 MLOAD DUP1 SWAP2 SUB SWAP1 RETURN JUMPDEST CALLVALUE DUP1 ISZERO PUSH2 0x22B JUMPI PUSH1 0x0 DUP1 REVERT JUMPDEST POP PUSH2 0x234 PUSH2 0xAEA JUMP JUMPDEST PUSH1 0x40 MLOAD PUSH2 0x241 SWAP2 SWAP1 PUSH2 0x1827 JUMP JUMPDEST PUSH1 0x40 MLOAD DUP1 SWAP2 SUB SWAP1 RETURN JUMPDEST CALLVALUE DUP1 ISZERO PUSH2 0x256 JUMPI PUSH1 0x0 DUP1 REVERT JUMPDEST POP PUSH2 0x271 PUSH1 0x4 DUP1 CALLDATASIZE SUB DUP2 ADD SWAP1 PUSH2 0x26C SWAP2 SWAP1 PUSH2 0x189B JUMP JUMPDEST PUSH2 0xB81 JUMP JUMPDEST PUSH1 0x40 MLOAD PUSH2 0x27E SWAP2 SWAP1 PUSH2 0x1827 JUMP JUMPDEST PUSH1 0x40 MLOAD DUP1 SWAP2 SUB SWAP1 RETURN JUMPDEST CALLVALUE DUP1 ISZERO PUSH2 0x293 JUMPI PUSH1 0x0 DUP1 REVERT JUMPDEST POP PUSH2 0x2AE PUSH1 0x4 DUP1 CALLDATASIZE SUB DUP2 ADD SWAP1 PUSH2 0x2A9 SWAP2 SWAP1 PUSH2 0x16A5 JUMP JUMPDEST PUSH2 0xBA6 JUMP JUMPDEST PUSH1 0x40 MLOAD PUSH2 0x2BB SWAP2 SWAP1 PUSH2 0x1713 JUMP JUMPDEST PUSH1 0x40 MLOAD DUP1 SWAP2 SUB SWAP1 RETURN JUMPDEST CALLVALUE DUP1 ISZERO PUSH2 0x2D0 JUMPI PUSH1 0x0 DUP1 REVERT JUMPDEST POP PUSH2 0x2D9 PUSH2 0xBE5 JUMP JUMPDEST PUSH1 0x40 MLOAD PUSH2 0x2E6 SWAP2 SWAP1 PUSH2 0x18FC JUMP JUMPDEST PUSH1 0x40 MLOAD DUP1 SWAP2 SUB SWAP1 RETURN JUMPDEST CALLVALUE DUP1 ISZERO PUSH2 0x2FB JUMPI PUSH1 0x0 DUP1 REVERT JUMPDEST POP PUSH2 0x304 PUSH2 0xC09 JUMP JUMPDEST PUSH1 0x40 MLOAD PUSH2 0x313 SWAP4 SWAP3 SWAP2 SWAP1 PUSH2 0x1917 JUMP JUMPDEST PUSH1 0x40 MLOAD DUP1 SWAP2 SUB SWAP1 RETURN JUMPDEST CALLVALUE DUP1 ISZERO PUSH2 0x328 JUMPI PUSH1 0x0 DUP1 REVERT JUMPDEST POP PUSH2 0x331 PUSH2 0xC2B JUMP JUMPDEST PUSH1 0x40 MLOAD PUSH2 0x342 SWAP6 SWAP5 SWAP4 SWAP3 SWAP2 SWAP1 PUSH2 0x17CD JUMP JUMPDEST PUSH1 0x40 MLOAD DUP1 SWAP2 SUB SWAP1 RETURN JUMPDEST CALLVALUE DUP1 ISZERO PUSH2 0x357 JUMPI PUSH1 0x0 DUP1 REVERT JUMPDEST POP PUSH2 0x372 PUSH1 0x4 DUP1 CALLDATASIZE SUB DUP2 ADD SWAP1 PUSH2 0x36D SWAP2 SWAP1 PUSH2 0x16A5 JUMP JUMPDEST PUSH2 0xCD7 JUMP JUMPDEST PUSH1 0x40 MLOAD PUSH2 0x37F SWAP2 SWAP1 PUSH2 0x1713 JUMP JUMPDEST PUSH1 0x40 MLOAD DUP1 SWAP2 SUB SWAP1 RETURN JUMPDEST PUSH2 0x390 PUSH2 0xD16 JUMP JUMPDEST STOP JUMPDEST CALLVALUE DUP1 ISZERO PUSH2 0x39E JUMPI PUSH1 0x0 DUP1 REVERT JUMPDEST POP PUSH2 0x3B9 PUSH1 0x4 DUP1 CALLDATASIZE SUB DUP2 ADD SWAP1 PUSH2 0x3B4 SWAP2 SWAP1 PUSH2 0x16A5 JUMP JUMPDEST PUSH2 0x104E JUMP JUMPDEST PUSH1 0x40 MLOAD PUSH2 0x3C6 SWAP2 SWAP1 PUSH2 0x1827 JUMP JUMPDEST PUSH1 0x40 MLOAD DUP1 SWAP2 SUB SWAP1 RETURN JUMPDEST CALLVALUE DUP1 ISZERO PUSH2 0x3DB JUMPI PUSH1 0x0 DUP1 REVERT JUMPDEST POP PUSH2 0x3F6 PUSH1 0x4 DUP1 CALLDATASIZE SUB DUP2 ADD SWAP1 PUSH2 0x3F1 SWAP2 SWAP1 PUSH2 0x186E JUMP JUMPDEST PUSH2 0x1066 JUMP JUMPDEST PUSH1 0x40 MLOAD PUSH2 0x403 SWAP2 SWAP1 PUSH2 0x1827 JUMP JUMPDEST PUSH1 0x40 MLOAD DUP1 SWAP2 SUB SWAP1 RETURN JUMPDEST PUSH2 0x426 PUSH1 0x4 DUP1 CALLDATASIZE SUB DUP2 ADD SWAP1 PUSH2 0x421 SWAP2 SWAP1 PUSH2 0x16A5 JUMP JUMPDEST PUSH2 0x107E JUMP JUMPDEST STOP JUMPDEST CALLVALUE DUP1 ISZERO PUSH2 0x434 JUMPI PUSH1 0x0 DUP1 REVERT JUMPDEST POP PUSH2 0x43D PUSH2 0x1598 JUMP JUMPDEST PUSH1 0x40 MLOAD PUSH2 0x44E SWAP6 SWAP5 SWAP4 SWAP3 SWAP2 SWAP1 PUSH2 0x17CD JUMP JUMPDEST PUSH1 0x40 MLOAD DUP1 SWAP2 SUB SWAP1 RETURN JUMPDEST CALLVALUE DUP1 ISZERO PUSH2 0x463 JUMPI PUSH1 0x0 DUP1 REVERT JUMPDEST POP PUSH2 0x46C PUSH2 0x1644 JUMP JUMPDEST PUSH1 0x40 MLOAD PUSH2 0x479 SWAP2 SWAP1 PUSH2 0x1713 JUMP JUMPDEST PUSH1 0x40 MLOAD DUP1 SWAP2 SUB SWAP1 RETURN JUMPDEST PUSH1 0x3 DUP2 DUP2 SLOAD DUP2 LT PUSH2 0x492 JUMPI PUSH1 0x0 DUP1 REVERT JUMPDEST SWAP1 PUSH1 0x0 MSTORE PUSH1 0x20 PUSH1 0x0 KECCAK256 ADD PUSH1 0x0 SWAP2 POP SLOAD SWAP1 PUSH2 0x100 EXP SWAP1 DIV PUSH20 0xFFFFFFFFFFFFFFFFFFFFFFFFFFFFFFFFFFFFFFFF AND DUP2 JUMP JUMPDEST PUSH1 0x12 DUP1 PUSH1 0x0 ADD DUP1 SLOAD PUSH2 0x4D2 SWAP1 PUSH2 0x197D JUMP JUMPDEST DUP1 PUSH1 0x1F ADD PUSH1 0x20 DUP1 SWAP2 DIV MUL PUSH1 0x20 ADD PUSH1 0x40 MLOAD SWAP1 DUP2 ADD PUSH1 0x40 MSTORE DUP1 SWAP3 SWAP2 SWAP1 DUP2 DUP2 MSTORE PUSH1 0x20 ADD DUP3 DUP1 SLOAD PUSH2 0x4FE SWAP1 PUSH2 0x197D JUMP JUMPDEST DUP1 ISZERO PUSH2 0x54B JUMPI DUP1 PUSH1 0x1F LT PUSH2 0x520 JUMPI PUSH2 0x100 DUP1 DUP4 SLOAD DIV MUL DUP4 MSTORE SWAP2 PUSH1 0x20 ADD SWAP2 PUSH2 0x54B JUMP JUMPDEST DUP3 ADD SWAP2 SWAP1 PUSH1 0x0 MSTORE PUSH1 0x20 PUSH1 0x0 KECCAK256 SWAP1 JUMPDEST DUP2 SLOAD DUP2 MSTORE SWAP1 PUSH1 0x1 ADD SWAP1 PUSH1 0x20 ADD DUP1 DUP4 GT PUSH2 0x52E JUMPI DUP3 SWAP1 SUB PUSH1 0x1F AND DUP3 ADD SWAP2 JUMPDEST POP POP POP POP POP SWAP1 DUP1 PUSH1 0x1 ADD SLOAD SWAP1 DUP1 PUSH1 0x2 ADD SLOAD SWAP1 DUP1 PUSH1 0x3 ADD SLOAD SWAP1 DUP1 PUSH1 0x4 ADD SLOAD SWAP1 POP DUP6 JUMP JUMPDEST PUSH1 0x0 PUSH1 0x1 PUSH1 0x5 PUSH1 0x0 CALLER PUSH20 0xFFFFFFFFFFFFFFFFFFFFFFFFFFFFFFFFFFFFFFFF AND PUSH20 0xFFFFFFFFFFFFFFFFFFFFFFFFFFFFFFFFFFFFFFFF AND DUP2 MSTORE PUSH1 0x20 ADD SWAP1 DUP2 MSTORE PUSH1 0x20 ADD PUSH1 0x0 KECCAK256 SLOAD EQ DUP1 PUSH2 0x5FC JUMPI POP PUSH1 0x2 PUSH1 0x5 PUSH1 0x0 CALLER PUSH20 0xFFFFFFFFFFFFFFFFFFFFFFFFFFFFFFFFFFFFFFFF AND PUSH20 0xFFFFFFFFFFFFFFFFFFFFFFFFFFFFFFFFFFFFFFFF AND DUP2 MSTORE PUSH1 0x20 ADD SWAP1 DUP2 MSTORE PUSH1 0x20 ADD PUSH1 0x0 KECCAK256 SLOAD EQ JUMPDEST DUP1 PUSH2 0x646 JUMPI POP PUSH1 0x1 PUSH1 0x5 PUSH1 0x0 CALLER PUSH20 0xFFFFFFFFFFFFFFFFFFFFFFFFFFFFFFFFFFFFFFFF AND PUSH20 0xFFFFFFFFFFFFFFFFFFFFFFFFFFFFFFFFFFFFFFFF AND DUP2 MSTORE PUSH1 0x20 ADD SWAP1 DUP2 MSTORE PUSH1 0x20 ADD PUSH1 0x0 KECCAK256 SLOAD EQ JUMPDEST PUSH2 0x685 JUMPI PUSH1 0x40 MLOAD PUSH32 0x8C379A000000000000000000000000000000000000000000000000000000000 DUP2 MSTORE PUSH1 0x4 ADD PUSH2 0x67C SWAP1 PUSH2 0x19FA JUMP JUMPDEST PUSH1 0x40 MLOAD DUP1 SWAP2 SUB SWAP1 REVERT JUMPDEST PUSH1 0x0 PUSH1 0x6 PUSH1 0x0 PUSH1 0x5 PUSH1 0x0 CALLER PUSH20 0xFFFFFFFFFFFFFFFFFFFFFFFFFFFFFFFFFFFFFFFF AND PUSH20 0xFFFFFFFFFFFFFFFFFFFFFFFFFFFFFFFFFFFFFFFF AND DUP2 MSTORE PUSH1 0x20 ADD SWAP1 DUP2 MSTORE PUSH1 0x20 ADD PUSH1 0x0 KECCAK256 SLOAD DUP2 MSTORE PUSH1 0x20 ADD SWAP1 DUP2 MSTORE PUSH1 0x20 ADD PUSH1 0x0 KECCAK256 PUSH1 0x0 CALLER PUSH20 0xFFFFFFFFFFFFFFFFFFFFFFFFFFFFFFFFFFFFFFFF AND PUSH20 0xFFFFFFFFFFFFFFFFFFFFFFFFFFFFFFFFFFFFFFFF AND DUP2 MSTORE PUSH1 0x20 ADD SWAP1 DUP2 MSTORE PUSH1 0x20 ADD PUSH1 0x0 KECCAK256 SLOAD TIMESTAMP PUSH2 0x722 SWAP2 SWAP1 PUSH2 0x1A49 JUMP JUMPDEST SWAP1 POP PUSH1 0x0 PUSH2 0xE10 DUP3 PUSH2 0x734 SWAP2 SWAP1 PUSH2 0x1AAC JUMP JUMPDEST SWAP1 POP PUSH1 0x0 DUP2 PUSH1 0x7 PUSH1 0x0 PUSH1 0x5 PUSH1 0x0 CALLER PUSH20 0xFFFFFFFFFFFFFFFFFFFFFFFFFFFFFFFFFFFFFFFF AND PUSH20 0xFFFFFFFFFFFFFFFFFFFFFFFFFFFFFFFFFFFFFFFF AND DUP2 MSTORE PUSH1 0x20 ADD SWAP1 DUP2 MSTORE PUSH1 0x20 ADD PUSH1 0x0 KECCAK256 SLOAD DUP2 MSTORE PUSH1 0x20 ADD SWAP1 DUP2 MSTORE PUSH1 0x20 ADD PUSH1 0x0 KECCAK256 SLOAD PUSH2 0x796 SWAP2 SWAP1 PUSH2 0x1ADD JUMP JUMPDEST SWAP1 POP DUP1 SWAP4 POP POP POP POP SWAP1 JUMP JUMPDEST PUSH1 0x0 DUP1 SLOAD SWAP1 PUSH2 0x100 EXP SWAP1 DIV PUSH20 0xFFFFFFFFFFFFFFFFFFFFFFFFFFFFFFFFFFFFFFFF AND PUSH20 0xFFFFFFFFFFFFFFFFFFFFFFFFFFFFFFFFFFFFFFFF AND CALLER PUSH20 0xFFFFFFFFFFFFFFFFFFFFFFFFFFFFFFFFFFFFFFFF AND EQ PUSH2 0x82F JUMPI PUSH1 0x40 MLOAD PUSH32 0x8C379A000000000000000000000000000000000000000000000000000000000 DUP2 MSTORE PUSH1 0x4 ADD PUSH2 0x826 SWAP1 PUSH2 0x1B91 JUMP JUMPDEST PUSH1 0x40 MLOAD DUP1 SWAP2 SUB SWAP1 REVERT JUMPDEST DUP1 PUSH1 0x1 PUSH1 0x0 PUSH2 0x100 EXP DUP2 SLOAD DUP2 PUSH20 0xFFFFFFFFFFFFFFFFFFFFFFFFFFFFFFFFFFFFFFFF MUL NOT AND SWAP1 DUP4 PUSH20 0xFFFFFFFFFFFFFFFFFFFFFFFFFFFFFFFFFFFFFFFF AND MUL OR SWAP1 SSTORE POP POP JUMP JUMPDEST PUSH1 0x0 DUP1 SLOAD SWAP1 PUSH2 0x100 EXP SWAP1 DIV PUSH20 0xFFFFFFFFFFFFFFFFFFFFFFFFFFFFFFFFFFFFFFFF AND PUSH20 0xFFFFFFFFFFFFFFFFFFFFFFFFFFFFFFFFFFFFFFFF AND CALLER PUSH20 0xFFFFFFFFFFFFFFFFFFFFFFFFFFFFFFFFFFFFFFFF AND EQ PUSH2 0x901 JUMPI PUSH1 0x40 MLOAD PUSH32 0x8C379A000000000000000000000000000000000000000000000000000000000 DUP2 MSTORE PUSH1 0x4 ADD PUSH2 0x8F8 SWAP1 PUSH2 0x1B91 JUMP JUMPDEST PUSH1 0x40 MLOAD DUP1 SWAP2 SUB SWAP1 REVERT JUMPDEST PUSH1 0x0 SELFBALANCE SWAP1 POP PUSH1 0x0 DUP1 SLOAD SWAP1 PUSH2 0x100 EXP SWAP1 DIV PUSH20 0xFFFFFFFFFFFFFFFFFFFFFFFFFFFFFFFFFFFFFFFF AND PUSH20 0xFFFFFFFFFFFFFFFFFFFFFFFFFFFFFFFFFFFFFFFF AND PUSH2 0x8FC DUP3 SWAP1 DUP2 ISZERO MUL SWAP1 PUSH1 0x40 MLOAD PUSH1 0x0 PUSH1 0x40 MLOAD DUP1 DUP4 SUB DUP2 DUP6 DUP9 DUP9 CALL SWAP4 POP POP POP POP ISZERO DUP1 ISZERO PUSH2 0x96C JUMPI RETURNDATASIZE PUSH1 0x0 DUP1 RETURNDATACOPY RETURNDATASIZE PUSH1 0x0 REVERT JUMPDEST POP POP JUMP JUMPDEST PUSH1 0x0 PUSH1 0x1 PUSH1 0x0 SWAP1 SLOAD SWAP1 PUSH2 0x100 EXP SWAP1 DIV PUSH20 0xFFFFFFFFFFFFFFFFFFFFFFFFFFFFFFFFFFFFFFFF AND PUSH20 0xFFFFFFFFFFFFFFFFFFFFFFFFFFFFFFFFFFFFFFFF AND CALLER PUSH20 0xFFFFFFFFFFFFFFFFFFFFFFFFFFFFFFFFFFFFFFFF AND EQ PUSH2 0x9CC JUMPI PUSH1 0x0 DUP1 REVERT JUMPDEST PUSH1 0x0 PUSH1 0x6 PUSH1 0x0 PUSH1 0x5 PUSH1 0x0 DUP7 PUSH20 0xFFFFFFFFFFFFFFFFFFFFFFFFFFFFFFFFFFFFFFFF AND PUSH20 0xFFFFFFFFFFFFFFFFFFFFFFFFFFFFFFFFFFFFFFFF AND DUP2 MSTORE PUSH1 0x20 ADD SWAP1 DUP2 MSTORE PUSH1 0x20 ADD PUSH1 0x0 KECCAK256 SLOAD DUP2 MSTORE PUSH1 0x20 ADD SWAP1 DUP2 MSTORE PUSH1 0x20 ADD PUSH1 0x0 KECCAK256 PUSH1 0x0 DUP5 PUSH20 0xFFFFFFFFFFFFFFFFFFFFFFFFFFFFFFFFFFFFFFFF AND PUSH20 0xFFFFFFFFFFFFFFFFFFFFFFFFFFFFFFFFFFFFFFFF AND DUP2 MSTORE PUSH1 0x20 ADD SWAP1 DUP2 MSTORE PUSH1 0x20 ADD PUSH1 0x0 KECCAK256 SLOAD TIMESTAMP PUSH2 0xA69 SWAP2 SWAP1 PUSH2 0x1A49 JUMP JUMPDEST SWAP1 POP PUSH1 0x0 PUSH2 0xE10 DUP3 PUSH2 0xA7B SWAP2 SWAP1 PUSH2 0x1AAC JUMP JUMPDEST SWAP1 POP PUSH1 0x0 DUP2 PUSH1 0x7 PUSH1 0x0 PUSH1 0x5 PUSH1 0x0 DUP10 PUSH20 0xFFFFFFFFFFFFFFFFFFFFFFFFFFFFFFFFFFFFFFFF AND PUSH20 0xFFFFFFFFFFFFFFFFFFFFFFFFFFFFFFFFFFFFFFFF AND DUP2 MSTORE PUSH1 0x20 ADD SWAP1 DUP2 MSTORE PUSH1 0x20 ADD PUSH1 0x0 KECCAK256 SLOAD DUP2 MSTORE PUSH1 0x20 ADD SWAP1 DUP2 MSTORE PUSH1 0x20 ADD PUSH1 0x0 KECCAK256 SLOAD PUSH2 0xADD SWAP2 SWAP1 PUSH2 0x1ADD JUMP JUMPDEST SWAP1 POP DUP1 SWAP4 POP POP POP POP SWAP2 SWAP1 POP JUMP JUMPDEST PUSH1 0x0 DUP1 PUSH1 0x0 SWAP1 SLOAD SWAP1 PUSH2 0x100 EXP SWAP1 DIV PUSH20 0xFFFFFFFFFFFFFFFFFFFFFFFFFFFFFFFFFFFFFFFF AND PUSH20 0xFFFFFFFFFFFFFFFFFFFFFFFFFFFFFFFFFFFFFFFF AND CALLER PUSH20 0xFFFFFFFFFFFFFFFFFFFFFFFFFFFFFFFFFFFFFFFF AND EQ PUSH2 0xB7B JUMPI PUSH1 0x40 MLOAD PUSH32 0x8C379A000000000000000000000000000000000000000000000000000000000 DUP2 MSTORE PUSH1 0x4 ADD PUSH2 0xB72 SWAP1 PUSH2 0x1B91 JUMP JUMPDEST PUSH1 0x40 MLOAD DUP1 SWAP2 SUB SWAP1 REVERT JUMPDEST SELFBALANCE SWAP1 POP SWAP1 JUMP JUMPDEST PUSH1 0x6 PUSH1 0x20 MSTORE DUP2 PUSH1 0x0 MSTORE PUSH1 0x40 PUSH1 0x0 KECCAK256 PUSH1 0x20 MSTORE DUP1 PUSH1 0x0 MSTORE PUSH1 0x40 PUSH1 0x0 KECCAK256 PUSH1 0x0 SWAP2 POP SWAP2 POP POP SLOAD DUP2 JUMP JUMPDEST PUSH1 0x4 DUP2 DUP2 SLOAD DUP2 LT PUSH2 0xBB6 JUMPI PUSH1 0x0 DUP1 REVERT JUMPDEST SWAP1 PUSH1 0x0 MSTORE PUSH1 0x20 PUSH1 0x0 KECCAK256 ADD PUSH1 0x0 SWAP2 POP SLOAD SWAP1 PUSH2 0x100 EXP SWAP1 DIV PUSH20 0xFFFFFFFFFFFFFFFFFFFFFFFFFFFFFFFFFFFFFFFF AND DUP2 JUMP JUMPDEST PUSH1 0x0 DUP1 SLOAD SWAP1 PUSH2 0x100 EXP SWAP1 DIV PUSH20 0xFFFFFFFFFFFFFFFFFFFFFFFFFFFFFFFFFFFFFFFF AND DUP2 JUMP JUMPDEST PUSH1 0x0 DUP1 PUSH1 0x0 PUSH1 0x8 PUSH1 0x2 ADD SLOAD PUSH1 0xD PUSH1 0x2 ADD SLOAD PUSH1 0x12 PUSH1 0x2 ADD SLOAD SWAP3 POP SWAP3 POP SWAP3 POP SWAP1 SWAP2 SWAP3 JUMP JUMPDEST PUSH1 0x8 DUP1 PUSH1 0x0 ADD DUP1 SLOAD PUSH2 0xC3C SWAP1 PUSH2 0x197D JUMP JUMPDEST DUP1 PUSH1 0x1F ADD PUSH1 0x20 DUP1 SWAP2 DIV MUL PUSH1 0x20 ADD PUSH1 0x40 MLOAD SWAP1 DUP2 ADD PUSH1 0x40 MSTORE DUP1 SWAP3 SWAP2 SWAP1 DUP2 DUP2 MSTORE PUSH1 0x20 ADD DUP3 DUP1 SLOAD PUSH2 0xC68 SWAP1 PUSH2 0x197D JUMP JUMPDEST DUP1 ISZERO PUSH2 0xCB5 JUMPI DUP1 PUSH1 0x1F LT PUSH2 0xC8A JUMPI PUSH2 0x100 DUP1 DUP4 SLOAD DIV MUL DUP4 MSTORE SWAP2 PUSH1 0x20 ADD SWAP2 PUSH2 0xCB5 JUMP JUMPDEST DUP3 ADD SWAP2 SWAP1 PUSH1 0x0 MSTORE PUSH1 0x20 PUSH1 0x0 KECCAK256 SWAP1 JUMPDEST DUP2 SLOAD DUP2 MSTORE SWAP1 PUSH1 0x1 ADD SWAP1 PUSH1 0x20 ADD DUP1 DUP4 GT PUSH2 0xC98 JUMPI DUP3 SWAP1 SUB PUSH1 0x1F AND DUP3 ADD SWAP2 JUMPDEST POP POP POP POP POP SWAP1 DUP1 PUSH1 0x1 ADD SLOAD SWAP1 DUP1 PUSH1 0x2 ADD SLOAD SWAP1 DUP1 PUSH1 0x3 ADD SLOAD SWAP1 DUP1 PUSH1 0x4 ADD SLOAD SWAP1 POP DUP6 JUMP JUMPDEST PUSH1 0x2 DUP2 DUP2 SLOAD DUP2 LT PUSH2 0xCE7 JUMPI PUSH1 0x0 DUP1 REVERT JUMPDEST SWAP1 PUSH1 0x0 MSTORE PUSH1 0x20 PUSH1 0x0 KECCAK256 ADD PUSH1 0x0 SWAP2 POP SLOAD SWAP1 PUSH2 0x100 EXP SWAP1 DIV PUSH20 0xFFFFFFFFFFFFFFFFFFFFFFFFFFFFFFFFFFFFFFFF AND DUP2 JUMP JUMPDEST PUSH1 0x1 PUSH1 0x5 PUSH1 0x0 CALLER PUSH20 0xFFFFFFFFFFFFFFFFFFFFFFFFFFFFFFFFFFFFFFFF AND PUSH20 0xFFFFFFFFFFFFFFFFFFFFFFFFFFFFFFFFFFFFFFFF AND DUP2 MSTORE PUSH1 0x20 ADD SWAP1 DUP2 MSTORE PUSH1 0x20 ADD PUSH1 0x0 KECCAK256 SLOAD EQ DUP1 PUSH2 0xDA3 JUMPI POP PUSH1 0x2 PUSH1 0x5 PUSH1 0x0 CALLER PUSH20 0xFFFFFFFFFFFFFFFFFFFFFFFFFFFFFFFFFFFFFFFF AND PUSH20 0xFFFFFFFFFFFFFFFFFFFFFFFFFFFFFFFFFFFFFFFF AND DUP2 MSTORE PUSH1 0x20 ADD SWAP1 DUP2 MSTORE PUSH1 0x20 ADD PUSH1 0x0 KECCAK256 SLOAD EQ JUMPDEST DUP1 PUSH2 0xDED JUMPI POP PUSH1 0x1 PUSH1 0x5 PUSH1 0x0 CALLER PUSH20 0xFFFFFFFFFFFFFFFFFFFFFFFFFFFFFFFFFFFFFFFF AND PUSH20 0xFFFFFFFFFFFFFFFFFFFFFFFFFFFFFFFFFFFFFFFF AND DUP2 MSTORE PUSH1 0x20 ADD SWAP1 DUP2 MSTORE PUSH1 0x20 ADD PUSH1 0x0 KECCAK256 SLOAD EQ JUMPDEST PUSH2 0xE2C JUMPI PUSH1 0x40 MLOAD PUSH32 0x8C379A000000000000000000000000000000000000000000000000000000000 DUP2 MSTORE PUSH1 0x4 ADD PUSH2 0xE23 SWAP1 PUSH2 0x19FA JUMP JUMPDEST PUSH1 0x40 MLOAD DUP1 SWAP2 SUB SWAP1 REVERT JUMPDEST PUSH1 0x1 PUSH1 0x5 PUSH1 0x0 CALLER PUSH20 0xFFFFFFFFFFFFFFFFFFFFFFFFFFFFFFFFFFFFFFFF AND PUSH20 0xFFFFFFFFFFFFFFFFFFFFFFFFFFFFFFFFFFFFFFFF AND DUP2 MSTORE PUSH1 0x20 ADD SWAP1 DUP2 MSTORE PUSH1 0x20 ADD PUSH1 0x0 KECCAK256 SLOAD SUB PUSH2 0xEE2 JUMPI PUSH1 0x0 PUSH2 0xE7D PUSH2 0x56D JUMP JUMPDEST SWAP1 POP DUP1 CALLVALUE EQ PUSH2 0xEC1 JUMPI PUSH1 0x40 MLOAD PUSH32 0x8C379A000000000000000000000000000000000000000000000000000000000 DUP2 MSTORE PUSH1 0x4 ADD PUSH2 0xEB8 SWAP1 PUSH2 0x1C23 JUMP JUMPDEST PUSH1 0x40 MLOAD DUP1 SWAP2 SUB SWAP1 REVERT JUMPDEST PUSH1 0x8 PUSH1 0x2 ADD PUSH1 0x0 DUP2 SLOAD DUP1 SWAP3 SWAP2 SWAP1 PUSH2 0xED7 SWAP1 PUSH2 0x1C43 JUMP JUMPDEST SWAP2 SWAP1 POP SSTORE POP POP PUSH2 0x104C JUMP JUMPDEST PUSH1 0x2 PUSH1 0x5 PUSH1 0x0 CALLER PUSH20 0xFFFFFFFFFFFFFFFFFFFFFFFFFFFFFFFFFFFFFFFF AND PUSH20 0xFFFFFFFFFFFFFFFFFFFFFFFFFFFFFFFFFFFFFFFF AND DUP2 MSTORE PUSH1 0x20 ADD SWAP1 DUP2 MSTORE PUSH1 0x20 ADD PUSH1 0x0 KECCAK256 SLOAD SUB PUSH2 0xF98 JUMPI PUSH1 0x0 PUSH2 0xF33 PUSH2 0x56D JUMP JUMPDEST SWAP1 POP DUP1 CALLVALUE EQ PUSH2 0xF77 JUMPI PUSH1 0x40 MLOAD PUSH32 0x8C379A000000000000000000000000000000000000000000000000000000000 DUP2 MSTORE PUSH1 0x4 ADD PUSH2 0xF6E SWAP1 PUSH2 0x1C23 JUMP JUMPDEST PUSH1 0x40 MLOAD DUP1 SWAP2 SUB SWAP1 REVERT JUMPDEST PUSH1 0x8 PUSH1 0x2 ADD PUSH1 0x0 DUP2 SLOAD DUP1 SWAP3 SWAP2 SWAP1 PUSH2 0xF8D SWAP1 PUSH2 0x1C43 JUMP JUMPDEST SWAP2 SWAP1 POP SSTORE POP POP PUSH2 0x104B JUMP JUMPDEST PUSH1 0x2 PUSH1 0x5 PUSH1 0x0 CALLER PUSH20 0xFFFFFFFFFFFFFFFFFFFFFFFFFFFFFFFFFFFFFFFF AND PUSH20 0xFFFFFFFFFFFFFFFFFFFFFFFFFFFFFFFFFFFFFFFF AND DUP2 MSTORE PUSH1 0x20 ADD SWAP1 DUP2 MSTORE PUSH1 0x20 ADD PUSH1 0x0 KECCAK256 SLOAD SUB PUSH2 0x104A JUMPI PUSH1 0x0 PUSH2 0xFE9 PUSH2 0x56D JUMP JUMPDEST SWAP1 POP DUP1 CALLVALUE EQ PUSH2 0x102D JUMPI PUSH1 0x40 MLOAD PUSH32 0x8C379A000000000000000000000000000000000000000000000000000000000 DUP2 MSTORE PUSH1 0x4 ADD PUSH2 0x1024 SWAP1 PUSH2 0x1C23 JUMP JUMPDEST PUSH1 0x40 MLOAD DUP1 SWAP2 SUB SWAP1 REVERT JUMPDEST PUSH1 0x8 PUSH1 0x2 ADD PUSH1 0x0 DUP2 SLOAD DUP1 SWAP3 SWAP2 SWAP1 PUSH2 0x1043 SWAP1 PUSH2 0x1C43 JUMP JUMPDEST SWAP2 SWAP1 POP SSTORE POP POP JUMPDEST JUMPDEST JUMPDEST JUMP JUMPDEST PUSH1 0x7 PUSH1 0x20 MSTORE DUP1 PUSH1 0x0 MSTORE PUSH1 0x40 PUSH1 0x0 KECCAK256 PUSH1 0x0 SWAP2 POP SWAP1 POP SLOAD DUP2 JUMP JUMPDEST PUSH1 0x5 PUSH1 0x20 MSTORE DUP1 PUSH1 0x0 MSTORE PUSH1 0x40 PUSH1 0x0 KECCAK256 PUSH1 0x0 SWAP2 POP SWAP1 POP SLOAD DUP2 JUMP JUMPDEST PUSH1 0x1 DUP2 SUB PUSH2 0x1231 JUMPI PUSH1 0x0 PUSH1 0x8 PUSH1 0x2 ADD SLOAD GT PUSH2 0x10CE JUMPI PUSH1 0x40 MLOAD PUSH32 0x8C379A000000000000000000000000000000000000000000000000000000000 DUP2 MSTORE PUSH1 0x4 ADD PUSH2 0x10C5 SWAP1 PUSH2 0x1D23 JUMP JUMPDEST PUSH1 0x40 MLOAD DUP1 SWAP2 SUB SWAP1 REVERT JUMPDEST PUSH1 0x8 PUSH1 0x3 ADD SLOAD CALLVALUE EQ PUSH2 0x1115 JUMPI PUSH1 0x40 MLOAD PUSH32 0x8C379A000000000000000000000000000000000000000000000000000000000 DUP2 MSTORE PUSH1 0x4 ADD PUSH2 0x110C SWAP1 PUSH2 0x1DB5 JUMP JUMPDEST PUSH1 0x40 MLOAD DUP1 SWAP2 SUB SWAP1 REVERT JUMPDEST DUP1 PUSH1 0x5 PUSH1 0x0 CALLER PUSH20 0xFFFFFFFFFFFFFFFFFFFFFFFFFFFFFFFFFFFFFFFF AND PUSH20 0xFFFFFFFFFFFFFFFFFFFFFFFFFFFFFFFFFFFFFFFF AND DUP2 MSTORE PUSH1 0x20 ADD SWAP1 DUP2 MSTORE PUSH1 0x20 ADD PUSH1 0x0 KECCAK256 DUP2 SWAP1 SSTORE POP TIMESTAMP PUSH1 0x6 PUSH1 0x0 DUP4 DUP2 MSTORE PUSH1 0x20 ADD SWAP1 DUP2 MSTORE PUSH1 0x20 ADD PUSH1 0x0 KECCAK256 PUSH1 0x0 CALLER PUSH20 0xFFFFFFFFFFFFFFFFFFFFFFFFFFFFFFFFFFFFFFFF AND PUSH20 0xFFFFFFFFFFFFFFFFFFFFFFFFFFFFFFFFFFFFFFFF AND DUP2 MSTORE PUSH1 0x20 ADD SWAP1 DUP2 MSTORE PUSH1 0x20 ADD PUSH1 0x0 KECCAK256 DUP2 SWAP1 SSTORE POP PUSH1 0x2 CALLER SWAP1 DUP1 PUSH1 0x1 DUP2 SLOAD ADD DUP1 DUP3 SSTORE DUP1 SWAP2 POP POP PUSH1 0x1 SWAP1 SUB SWAP1 PUSH1 0x0 MSTORE PUSH1 0x20 PUSH1 0x0 KECCAK256 ADD PUSH1 0x0 SWAP1 SWAP2 SWAP1 SWAP2 SWAP1 SWAP2 PUSH2 0x100 EXP DUP2 SLOAD DUP2 PUSH20 0xFFFFFFFFFFFFFFFFFFFFFFFFFFFFFFFFFFFFFFFF MUL NOT AND SWAP1 DUP4 PUSH20 0xFFFFFFFFFFFFFFFFFFFFFFFFFFFFFFFFFFFFFFFF AND MUL OR SWAP1 SSTORE POP PUSH1 0x8 PUSH1 0x2 ADD PUSH1 0x0 DUP2 SLOAD DUP1 SWAP3 SWAP2 SWAP1 PUSH2 0x1227 SWAP1 PUSH2 0x1DD5 JUMP JUMPDEST SWAP2 SWAP1 POP SSTORE POP PUSH2 0x1595 JUMP JUMPDEST PUSH1 0x2 DUP2 SUB PUSH2 0x13E4 JUMPI PUSH1 0x0 PUSH1 0xD PUSH1 0x2 ADD SLOAD GT PUSH2 0x1281 JUMPI PUSH1 0x40 MLOAD PUSH32 0x8C379A000000000000000000000000000000000000000000000000000000000 DUP2 MSTORE PUSH1 0x4 ADD PUSH2 0x1278 SWAP1 PUSH2 0x1D23 JUMP JUMPDEST PUSH1 0x40 MLOAD DUP1 SWAP2 SUB SWAP1 REVERT JUMPDEST PUSH1 0xD PUSH1 0x3 ADD SLOAD CALLVALUE EQ PUSH2 0x12C8 JUMPI PUSH1 0x40 MLOAD PUSH32 0x8C379A000000000000000000000000000000000000000000000000000000000 DUP2 MSTORE PUSH1 0x4 ADD PUSH2 0x12BF SWAP1 PUSH2 0x1E70 JUMP JUMPDEST PUSH1 0x40 MLOAD DUP1 SWAP2 SUB SWAP1 REVERT JUMPDEST DUP1 PUSH1 0x5 PUSH1 0x0 CALLER PUSH20 0xFFFFFFFFFFFFFFFFFFFFFFFFFFFFFFFFFFFFFFFF AND PUSH20 0xFFFFFFFFFFFFFFFFFFFFFFFFFFFFFFFFFFFFFFFF AND DUP2 MSTORE PUSH1 0x20 ADD SWAP1 DUP2 MSTORE PUSH1 0x20 ADD PUSH1 0x0 KECCAK256 DUP2 SWAP1 SSTORE POP TIMESTAMP PUSH1 0x6 PUSH1 0x0 DUP4 DUP2 MSTORE PUSH1 0x20 ADD SWAP1 DUP2 MSTORE PUSH1 0x20 ADD PUSH1 0x0 KECCAK256 PUSH1 0x0 CALLER PUSH20 0xFFFFFFFFFFFFFFFFFFFFFFFFFFFFFFFFFFFFFFFF AND PUSH20 0xFFFFFFFFFFFFFFFFFFFFFFFFFFFFFFFFFFFFFFFF AND DUP2 MSTORE PUSH1 0x20 ADD SWAP1 DUP2 MSTORE PUSH1 0x20 ADD PUSH1 0x0 KECCAK256 DUP2 SWAP1 SSTORE POP PUSH1 0x3 CALLER SWAP1 DUP1 PUSH1 0x1 DUP2 SLOAD ADD DUP1 DUP3 SSTORE DUP1 SWAP2 POP POP PUSH1 0x1 SWAP1 SUB SWAP1 PUSH1 0x0 MSTORE PUSH1 0x20 PUSH1 0x0 KECCAK256 ADD PUSH1 0x0 SWAP1 SWAP2 SWAP1 SWAP2 SWAP1 SWAP2 PUSH2 0x100 EXP DUP2 SLOAD DUP2 PUSH20 0xFFFFFFFFFFFFFFFFFFFFFFFFFFFFFFFFFFFFFFFF MUL NOT AND SWAP1 DUP4 PUSH20 0xFFFFFFFFFFFFFFFFFFFFFFFFFFFFFFFFFFFFFFFF AND MUL OR SWAP1 SSTORE POP PUSH1 0xD PUSH1 0x2 ADD PUSH1 0x0 DUP2 SLOAD DUP1 SWAP3 SWAP2 SWAP1 PUSH2 0x13DA SWAP1 PUSH2 0x1DD5 JUMP JUMPDEST SWAP2 SWAP1 POP SSTORE POP PUSH2 0x1594 JUMP JUMPDEST PUSH1 0x3 DUP2 SUB PUSH2 0x1593 JUMPI PUSH1 0x0 PUSH1 0x12 PUSH1 0x2 ADD SLOAD GT PUSH2 0x1434 JUMPI PUSH1 0x40 MLOAD PUSH32 0x8C379A000000000000000000000000000000000000000000000000000000000 DUP2 MSTORE PUSH1 0x4 ADD PUSH2 0x142B SWAP1 PUSH2 0x1D23 JUMP JUMPDEST PUSH1 0x40 MLOAD DUP1 SWAP2 SUB SWAP1 REVERT JUMPDEST PUSH1 0x12 PUSH1 0x3 ADD SLOAD CALLVALUE EQ PUSH2 0x147B JUMPI PUSH1 0x40 MLOAD PUSH32 0x8C379A000000000000000000000000000000000000000000000000000000000 DUP2 MSTORE PUSH1 0x4 ADD PUSH2 0x1472 SWAP1 PUSH2 0x1F02 JUMP JUMPDEST PUSH1 0x40 MLOAD DUP1 SWAP2 SUB SWAP1 REVERT JUMPDEST DUP1 PUSH1 0x5 PUSH1 0x0 CALLER PUSH20 0xFFFFFFFFFFFFFFFFFFFFFFFFFFFFFFFFFFFFFFFF AND PUSH20 0xFFFFFFFFFFFFFFFFFFFFFFFFFFFFFFFFFFFFFFFF AND DUP2 MSTORE PUSH1 0x20 ADD SWAP1 DUP2 MSTORE PUSH1 0x20 ADD PUSH1 0x0 KECCAK256 DUP2 SWAP1 SSTORE POP TIMESTAMP PUSH1 0x6 PUSH1 0x0 DUP4 DUP2 MSTORE PUSH1 0x20 ADD SWAP1 DUP2 MSTORE PUSH1 0x20 ADD PUSH1 0x0 KECCAK256 PUSH1 0x0 CALLER PUSH20 0xFFFFFFFFFFFFFFFFFFFFFFFFFFFFFFFFFFFFFFFF AND PUSH20 0xFFFFFFFFFFFFFFFFFFFFFFFFFFFFFFFFFFFFFFFF AND DUP2 MSTORE PUSH1 0x20 ADD SWAP1 DUP2 MSTORE PUSH1 0x20 ADD PUSH1 0x0 KECCAK256 DUP2 SWAP1 SSTORE POP PUSH1 0x4 CALLER SWAP1 DUP1 PUSH1 0x1 DUP2 SLOAD ADD DUP1 DUP3 SSTORE DUP1 SWAP2 POP POP PUSH1 0x1 SWAP1 SUB SWAP1 PUSH1 0x0 MSTORE PUSH1 0x20 PUSH1 0x0 KECCAK256 ADD PUSH1 0x0 SWAP1 SWAP2 SWAP1 SWAP2 SWAP1 SWAP2 PUSH2 0x100 EXP DUP2 SLOAD DUP2 PUSH20 0xFFFFFFFFFFFFFFFFFFFFFFFFFFFFFFFFFFFFFFFF MUL NOT AND SWAP1 DUP4 PUSH20 0xFFFFFFFFFFFFFFFFFFFFFFFFFFFFFFFFFFFFFFFF AND MUL OR SWAP1 SSTORE POP PUSH1 0x12 PUSH1 0x2 ADD PUSH1 0x0 DUP2 SLOAD DUP1 SWAP3 SWAP2 SWAP1 PUSH2 0x158D SWAP1 PUSH2 0x1DD5 JUMP JUMPDEST SWAP2 SWAP1 POP SSTORE POP JUMPDEST JUMPDEST JUMPDEST POP JUMP JUMPDEST PUSH1 0xD DUP1 PUSH1 0x0 ADD DUP1 SLOAD PUSH2 0x15A9 SWAP1 PUSH2 0x197D JUMP JUMPDEST DUP1 PUSH1 0x1F ADD PUSH1 0x20 DUP1 SWAP2 DIV MUL PUSH1 0x20 ADD PUSH1 0x40 MLOAD SWAP1 DUP2 ADD PUSH1 0x40 MSTORE DUP1 SWAP3 SWAP2 SWAP1 DUP2 DUP2 MSTORE PUSH1 0x20 ADD DUP3 DUP1 SLOAD PUSH2 0x15D5 SWAP1 PUSH2 0x197D JUMP JUMPDEST DUP1 ISZERO PUSH2 0x1622 JUMPI DUP1 PUSH1 0x1F LT PUSH2 0x15F7 JUMPI PUSH2 0x100 DUP1 DUP4 SLOAD DIV MUL DUP4 MSTORE SWAP2 PUSH1 0x20 ADD SWAP2 PUSH2 0x1622 JUMP JUMPDEST DUP3 ADD SWAP2 SWAP1 PUSH1 0x0 MSTORE PUSH1 0x20 PUSH1 0x0 KECCAK256 SWAP1 JUMPDEST DUP2 SLOAD DUP2 MSTORE SWAP1 PUSH1 0x1 ADD SWAP1 PUSH1 0x20 ADD DUP1 DUP4 GT PUSH2 0x1605 JUMPI DUP3 SWAP1 SUB PUSH1 0x1F AND DUP3 ADD SWAP2 JUMPDEST POP POP POP POP POP SWAP1 DUP1 PUSH1 0x1 ADD SLOAD SWAP1 DUP1 PUSH1 0x2 ADD SLOAD SWAP1 DUP1 PUSH1 0x3 ADD SLOAD SWAP1 DUP1 PUSH1 0x4 ADD SLOAD SWAP1 POP DUP6 JUMP JUMPDEST PUSH1 0x1 PUSH1 0x0 SWAP1 SLOAD SWAP1 PUSH2 0x100 EXP SWAP1 DIV PUSH20 0xFFFFFFFFFFFFFFFFFFFFFFFFFFFFFFFFFFFFFFFF AND DUP2 JUMP JUMPDEST PUSH1 0x0 DUP1 REVERT JUMPDEST PUSH1 0x0 DUP2 SWAP1 POP SWAP2 SWAP1 POP JUMP JUMPDEST PUSH2 0x1682 DUP2 PUSH2 0x166F JUMP JUMPDEST DUP2 EQ PUSH2 0x168D JUMPI PUSH1 0x0 DUP1 REVERT JUMPDEST POP JUMP JUMPDEST PUSH1 0x0 DUP2 CALLDATALOAD SWAP1 POP PUSH2 0x169F DUP2 PUSH2 0x1679 JUMP JUMPDEST SWAP3 SWAP2 POP POP JUMP JUMPDEST PUSH1 0x0 PUSH1 0x20 DUP3 DUP5 SUB SLT ISZERO PUSH2 0x16BB JUMPI PUSH2 0x16BA PUSH2 0x166A JUMP JUMPDEST JUMPDEST PUSH1 0x0 PUSH2 0x16C9 DUP5 DUP3 DUP6 ADD PUSH2 0x1690 JUMP JUMPDEST SWAP2 POP POP SWAP3 SWAP2 POP POP JUMP JUMPDEST PUSH1 0x0 PUSH20 0xFFFFFFFFFFFFFFFFFFFFFFFFFFFFFFFFFFFFFFFF DUP3 AND SWAP1 POP SWAP2 SWAP1 POP JUMP JUMPDEST PUSH1 0x0 PUSH2 0x16FD DUP3 PUSH2 0x16D2 JUMP JUMPDEST SWAP1 POP SWAP2 SWAP1 POP JUMP JUMPDEST PUSH2 0x170D DUP2 PUSH2 0x16F2 JUMP JUMPDEST DUP3 MSTORE POP POP JUMP JUMPDEST PUSH1 0x0 PUSH1 0x20 DUP3 ADD SWAP1 POP PUSH2 0x1728 PUSH1 0x0 DUP4 ADD DUP5 PUSH2 0x1704 JUMP JUMPDEST SWAP3 SWAP2 POP POP JUMP JUMPDEST PUSH1 0x0 DUP2 MLOAD SWAP1 POP SWAP2 SWAP1 POP JUMP JUMPDEST PUSH1 0x0 DUP3 DUP3 MSTORE PUSH1 0x20 DUP3 ADD SWAP1 POP SWAP3 SWAP2 POP POP JUMP JUMPDEST PUSH1 0x0 JUMPDEST DUP4 DUP2 LT ISZERO PUSH2 0x1768 JUMPI DUP1 DUP3 ADD MLOAD DUP2 DUP5 ADD MSTORE PUSH1 0x20 DUP2 ADD SWAP1 POP PUSH2 0x174D JUMP JUMPDEST PUSH1 0x0 DUP5 DUP5 ADD MSTORE POP POP POP POP JUMP JUMPDEST PUSH1 0x0 PUSH1 0x1F NOT PUSH1 0x1F DUP4 ADD AND SWAP1 POP SWAP2 SWAP1 POP JUMP JUMPDEST PUSH1 0x0 PUSH2 0x1790 DUP3 PUSH2 0x172E JUMP JUMPDEST PUSH2 0x179A DUP2 DUP6 PUSH2 0x1739 JUMP JUMPDEST SWAP4 POP PUSH2 0x17AA DUP2 DUP6 PUSH1 0x20 DUP7 ADD PUSH2 0x174A JUMP JUMPDEST PUSH2 0x17B3 DUP2 PUSH2 0x1774 JUMP JUMPDEST DUP5 ADD SWAP2 POP POP SWAP3 SWAP2 POP POP JUMP JUMPDEST PUSH2 0x17C7 DUP2 PUSH2 0x166F JUMP JUMPDEST DUP3 MSTORE POP POP JUMP JUMPDEST PUSH1 0x0 PUSH1 0xA0 DUP3 ADD SWAP1 POP DUP2 DUP2 SUB PUSH1 0x0 DUP4 ADD MSTORE PUSH2 0x17E7 DUP2 DUP9 PUSH2 0x1785 JUMP JUMPDEST SWAP1 POP PUSH2 0x17F6 PUSH1 0x20 DUP4 ADD DUP8 PUSH2 0x17BE JUMP JUMPDEST PUSH2 0x1803 PUSH1 0x40 DUP4 ADD DUP7 PUSH2 0x17BE JUMP JUMPDEST PUSH2 0x1810 PUSH1 0x60 DUP4 ADD DUP6 PUSH2 0x17BE JUMP JUMPDEST PUSH2 0x181D PUSH1 0x80 DUP4 ADD DUP5 PUSH2 0x17BE JUMP JUMPDEST SWAP7 SWAP6 POP POP POP POP POP POP JUMP JUMPDEST PUSH1 0x0 PUSH1 0x20 DUP3 ADD SWAP1 POP PUSH2 0x183C PUSH1 0x0 DUP4 ADD DUP5 PUSH2 0x17BE JUMP JUMPDEST SWAP3 SWAP2 POP POP JUMP JUMPDEST PUSH2 0x184B DUP2 PUSH2 0x16F2 JUMP JUMPDEST DUP2 EQ PUSH2 0x1856 JUMPI PUSH1 0x0 DUP1 REVERT JUMPDEST POP JUMP JUMPDEST PUSH1 0x0 DUP2 CALLDATALOAD SWAP1 POP PUSH2 0x1868 DUP2 PUSH2 0x1842 JUMP JUMPDEST SWAP3 SWAP2 POP POP JUMP JUMPDEST PUSH1 0x0 PUSH1 0x20 DUP3 DUP5 SUB SLT ISZERO PUSH2 0x1884 JUMPI PUSH2 0x1883 PUSH2 0x166A JUMP JUMPDEST JUMPDEST PUSH1 0x0 PUSH2 0x1892 DUP5 DUP3 DUP6 ADD PUSH2 0x1859 JUMP JUMPDEST SWAP2 POP POP SWAP3 SWAP2 POP POP JUMP JUMPDEST PUSH1 0x0 DUP1 PUSH1 0x40 DUP4 DUP6 SUB SLT ISZERO PUSH2 0x18B2 JUMPI PUSH2 0x18B1 PUSH2 0x166A JUMP JUMPDEST JUMPDEST PUSH1 0x0 PUSH2 0x18C0 DUP6 DUP3 DUP7 ADD PUSH2 0x1690 JUMP JUMPDEST SWAP3 POP POP PUSH1 0x20 PUSH2 0x18D1 DUP6 DUP3 DUP7 ADD PUSH2 0x1859 JUMP JUMPDEST SWAP2 POP POP SWAP3 POP SWAP3 SWAP1 POP JUMP JUMPDEST PUSH1 0x0 PUSH2 0x18E6 DUP3 PUSH2 0x16D2 JUMP JUMPDEST SWAP1 POP SWAP2 SWAP1 POP JUMP JUMPDEST PUSH2 0x18F6 DUP2 PUSH2 0x18DB JUMP JUMPDEST DUP3 MSTORE POP POP JUMP JUMPDEST PUSH1 0x0 PUSH1 0x20 DUP3 ADD SWAP1 POP PUSH2 0x1911 PUSH1 0x0 DUP4 ADD DUP5 PUSH2 0x18ED JUMP JUMPDEST SWAP3 SWAP2 POP POP JUMP JUMPDEST PUSH1 0x0 PUSH1 0x60 DUP3 ADD SWAP1 POP PUSH2 0x192C PUSH1 0x0 DUP4 ADD DUP7 PUSH2 0x17BE JUMP JUMPDEST PUSH2 0x1939 PUSH1 0x20 DUP4 ADD DUP6 PUSH2 0x17BE JUMP JUMPDEST PUSH2 0x1946 PUSH1 0x40 DUP4 ADD DUP5 PUSH2 0x17BE JUMP JUMPDEST SWAP5 SWAP4 POP POP POP POP JUMP JUMPDEST PUSH32 0x4E487B7100000000000000000000000000000000000000000000000000000000 PUSH1 0x0 MSTORE PUSH1 0x22 PUSH1 0x4 MSTORE PUSH1 0x24 PUSH1 0x0 REVERT JUMPDEST PUSH1 0x0 PUSH1 0x2 DUP3 DIV SWAP1 POP PUSH1 0x1 DUP3 AND DUP1 PUSH2 0x1995 JUMPI PUSH1 0x7F DUP3 AND SWAP2 POP JUMPDEST PUSH1 0x20 DUP3 LT DUP2 SUB PUSH2 0x19A8 JUMPI PUSH2 0x19A7 PUSH2 0x194E JUMP JUMPDEST JUMPDEST POP SWAP2 SWAP1 POP JUMP JUMPDEST PUSH32 0x4F6E6C7920437573746F6D65722063616E206163636573732074686973000000 PUSH1 0x0 DUP3 ADD MSTORE POP JUMP JUMPDEST PUSH1 0x0 PUSH2 0x19E4 PUSH1 0x1D DUP4 PUSH2 0x1739 JUMP JUMPDEST SWAP2 POP PUSH2 0x19EF DUP3 PUSH2 0x19AE JUMP JUMPDEST PUSH1 0x20 DUP3 ADD SWAP1 POP SWAP2 SWAP1 POP JUMP JUMPDEST PUSH1 0x0 PUSH1 0x20 DUP3 ADD SWAP1 POP DUP2 DUP2 SUB PUSH1 0x0 DUP4 ADD MSTORE PUSH2 0x1A13 DUP2 PUSH2 0x19D7 JUMP JUMPDEST SWAP1 POP SWAP2 SWAP1 POP JUMP JUMPDEST PUSH32 0x4E487B7100000000000000000000000000000000000000000000000000000000 PUSH1 0x0 MSTORE PUSH1 0x11 PUSH1 0x4 MSTORE PUSH1 0x24 PUSH1 0x0 REVERT JUMPDEST PUSH1 0x0 PUSH2 0x1A54 DUP3 PUSH2 0x166F JUMP JUMPDEST SWAP2 POP PUSH2 0x1A5F DUP4 PUSH2 0x166F JUMP JUMPDEST SWAP3 POP DUP3 DUP3 SUB SWAP1 POP DUP2 DUP2 GT ISZERO PUSH2 0x1A77 JUMPI PUSH2 0x1A76 PUSH2 0x1A1A JUMP JUMPDEST JUMPDEST SWAP3 SWAP2 POP POP JUMP JUMPDEST PUSH32 0x4E487B7100000000000000000000000000000000000000000000000000000000 PUSH1 0x0 MSTORE PUSH1 0x12 PUSH1 0x4 MSTORE PUSH1 0x24 PUSH1 0x0 REVERT JUMPDEST PUSH1 0x0 PUSH2 0x1AB7 DUP3 PUSH2 0x166F JUMP JUMPDEST SWAP2 POP PUSH2 0x1AC2 DUP4 PUSH2 0x166F JUMP JUMPDEST SWAP3 POP DUP3 PUSH2 0x1AD2 JUMPI PUSH2 0x1AD1 PUSH2 0x1A7D JUMP JUMPDEST JUMPDEST DUP3 DUP3 DIV SWAP1 POP SWAP3 SWAP2 POP POP JUMP JUMPDEST PUSH1 0x0 PUSH2 0x1AE8 DUP3 PUSH2 0x166F JUMP JUMPDEST SWAP2 POP PUSH2 0x1AF3 DUP4 PUSH2 0x166F JUMP JUMPDEST SWAP3 POP DUP3 DUP3 MUL PUSH2 0x1B01 DUP2 PUSH2 0x166F JUMP JUMPDEST SWAP2 POP DUP3 DUP3 DIV DUP5 EQ DUP4 ISZERO OR PUSH2 0x1B18 JUMPI PUSH2 0x1B17 PUSH2 0x1A1A JUMP JUMPDEST JUMPDEST POP SWAP3 SWAP2 POP POP JUMP JUMPDEST PUSH32 0x4F6E6C79204F776E65722063616E2061636365737320746869732066756E6374 PUSH1 0x0 DUP3 ADD MSTORE PUSH32 0x696F6E0000000000000000000000000000000000000000000000000000000000 PUSH1 0x20 DUP3 ADD MSTORE POP JUMP JUMPDEST PUSH1 0x0 PUSH2 0x1B7B PUSH1 0x23 DUP4 PUSH2 0x1739 JUMP JUMPDEST SWAP2 POP PUSH2 0x1B86 DUP3 PUSH2 0x1B1F JUMP JUMPDEST PUSH1 0x40 DUP3 ADD SWAP1 POP SWAP2 SWAP1 POP JUMP JUMPDEST PUSH1 0x0 PUSH1 0x20 DUP3 ADD SWAP1 POP DUP2 DUP2 SUB PUSH1 0x0 DUP4 ADD MSTORE PUSH2 0x1BAA DUP2 PUSH2 0x1B6E JUMP JUMPDEST SWAP1 POP SWAP2 SWAP1 POP JUMP JUMPDEST PUSH32 0x506C6561736520636865636B20796F75722072656E7420616E64207468656E20 PUSH1 0x0 DUP3 ADD MSTORE PUSH32 0x7061792074686520616D6F756E7420656C696769626C65000000000000000000 PUSH1 0x20 DUP3 ADD MSTORE POP JUMP JUMPDEST PUSH1 0x0 PUSH2 0x1C0D PUSH1 0x37 DUP4 PUSH2 0x1739 JUMP JUMPDEST SWAP2 POP PUSH2 0x1C18 DUP3 PUSH2 0x1BB1 JUMP JUMPDEST PUSH1 0x40 DUP3 ADD SWAP1 POP SWAP2 SWAP1 POP JUMP JUMPDEST PUSH1 0x0 PUSH1 0x20 DUP3 ADD SWAP1 POP DUP2 DUP2 SUB PUSH1 0x0 DUP4 ADD MSTORE PUSH2 0x1C3C DUP2 PUSH2 0x1C00 JUMP JUMPDEST SWAP1 POP SWAP2 SWAP1 POP JUMP JUMPDEST PUSH1 0x0 PUSH2 0x1C4E DUP3 PUSH2 0x166F JUMP JUMPDEST SWAP2 POP PUSH32 0xFFFFFFFFFFFFFFFFFFFFFFFFFFFFFFFFFFFFFFFFFFFFFFFFFFFFFFFFFFFFFFFF DUP3 SUB PUSH2 0x1C80 JUMPI PUSH2 0x1C7F PUSH2 0x1A1A JUMP JUMPDEST JUMPDEST PUSH1 0x1 DUP3 ADD SWAP1 POP SWAP2 SWAP1 POP JUMP JUMPDEST PUSH32 0x4E6F20526F6F6D7320617661696C61626C6520666F7220746869732074797065 PUSH1 0x0 DUP3 ADD MSTORE PUSH32 0x2C20506C6561736520436865636B204F746865722054797065206F6620526F6F PUSH1 0x20 DUP3 ADD MSTORE PUSH32 0x6D73000000000000000000000000000000000000000000000000000000000000 PUSH1 0x40 DUP3 ADD MSTORE POP JUMP JUMPDEST PUSH1 0x0 PUSH2 0x1D0D PUSH1 0x42 DUP4 PUSH2 0x1739 JUMP JUMPDEST SWAP2 POP PUSH2 0x1D18 DUP3 PUSH2 0x1C8B JUMP JUMPDEST PUSH1 0x60 DUP3 ADD SWAP1 POP SWAP2 SWAP1 POP JUMP JUMPDEST PUSH1 0x0 PUSH1 0x20 DUP3 ADD SWAP1 POP DUP2 DUP2 SUB PUSH1 0x0 DUP4 ADD MSTORE PUSH2 0x1D3C DUP2 PUSH2 0x1D00 JUMP JUMPDEST SWAP1 POP SWAP2 SWAP1 POP JUMP JUMPDEST PUSH32 0x506C6561736520656E74657220612056616C696420616D6F756E742C20536F6C PUSH1 0x0 DUP3 ADD MSTORE PUSH32 0x6F20526F6F6D20636F7374203120457468657200000000000000000000000000 PUSH1 0x20 DUP3 ADD MSTORE POP JUMP JUMPDEST PUSH1 0x0 PUSH2 0x1D9F PUSH1 0x33 DUP4 PUSH2 0x1739 JUMP JUMPDEST SWAP2 POP PUSH2 0x1DAA DUP3 PUSH2 0x1D43 JUMP JUMPDEST PUSH1 0x40 DUP3 ADD SWAP1 POP SWAP2 SWAP1 POP JUMP JUMPDEST PUSH1 0x0 PUSH1 0x20 DUP3 ADD SWAP1 POP DUP2 DUP2 SUB PUSH1 0x0 DUP4 ADD MSTORE PUSH2 0x1DCE DUP2 PUSH2 0x1D92 JUMP JUMPDEST SWAP1 POP SWAP2 SWAP1 POP JUMP JUMPDEST PUSH1 0x0 PUSH2 0x1DE0 DUP3 PUSH2 0x166F JUMP JUMPDEST SWAP2 POP PUSH1 0x0 DUP3 SUB PUSH2 0x1DF3 JUMPI PUSH2 0x1DF2 PUSH2 0x1A1A JUMP JUMPDEST JUMPDEST PUSH1 0x1 DUP3 SUB SWAP1 POP SWAP2 SWAP1 POP JUMP JUMPDEST PUSH32 0x506C6561736520656E74657220612056616C696420616D6F756E742C2064756F PUSH1 0x0 DUP3 ADD MSTORE PUSH32 0x20526F6F6D20636F737420322045746865720000000000000000000000000000 PUSH1 0x20 DUP3 ADD MSTORE POP JUMP JUMPDEST PUSH1 0x0 PUSH2 0x1E5A PUSH1 0x32 DUP4 PUSH2 0x1739 JUMP JUMPDEST SWAP2 POP PUSH2 0x1E65 DUP3 PUSH2 0x1DFE JUMP JUMPDEST PUSH1 0x40 DUP3 ADD SWAP1 POP SWAP2 SWAP1 POP JUMP JUMPDEST PUSH1 0x0 PUSH1 0x20 DUP3 ADD SWAP1 POP DUP2 DUP2 SUB PUSH1 0x0 DUP4 ADD MSTORE PUSH2 0x1E89 DUP2 PUSH2 0x1E4D JUMP JUMPDEST SWAP1 POP SWAP2 SWAP1 POP JUMP JUMPDEST PUSH32 0x506C6561736520656E74657220612056616C696420616D6F756E742C2066616D PUSH1 0x0 DUP3 ADD MSTORE PUSH32 0x696C7920526F6F6D20636F737420332045746865720000000000000000000000 PUSH1 0x20 DUP3 ADD MSTORE POP JUMP JUMPDEST PUSH1 0x0 PUSH2 0x1EEC PUSH1 0x35 DUP4 PUSH2 0x1739 JUMP JUMPDEST SWAP2 POP PUSH2 0x1EF7 DUP3 PUSH2 0x1E90 JUMP JUMPDEST PUSH1 0x40 DUP3 ADD SWAP1 POP SWAP2 SWAP1 POP JUMP JUMPDEST PUSH1 0x0 PUSH1 0x20 DUP3 ADD SWAP1 POP DUP2 DUP2 SUB PUSH1 0x0 DUP4 ADD MSTORE PUSH2 0x1F1B DUP2 PUSH2 0x1EDF JUMP JUMPDEST SWAP1 POP SWAP2 SWAP1 POP JUMP INVALID LOG2 PUSH5 0x6970667358 0x22 SLT KECCAK256 0xD2 0xDD ORIGIN SWAP14 0x2A SWAP5 PUSH30 0xF98A8F31E64EA354A8C7D036FFBFC50032B51B3446ADD75EA464736F6C63 NUMBER STOP ADDMOD GT STOP CALLER "},"methodIdentifiers":{"CustomerRecords(uint256,address)":"90cd2568","Owner()":"b4a99a4e","availableRoom()":"b7db0d81","changeReceptionist(address)":"1729a801","checkIn(uint256)":"e95a644f","checkOut()":"cba5751c","customerRoomType(address)":"cebb934f","duoCustomers(uint256)":"009a5282","duoRooms()":"f1f87b06","familyCustomers(uint256)":"921764d6","familyRooms()":"01ebd3c3","receiptionist()":"fd13b48c","roomRent(uint256)":"cc658783","soloCustomers(uint256)":"cb84adeb","soloRooms()":"ca6ca4e0","viewRent()":"12240ebe","viewRent(address)":"8760d6c1","viewRevenue()":"8c27db98","withdrawRevenue()":"4f573cb2"}}}}}