{
  "_format": "hh-sol-artifact-1",
  "contractName": "HotelManagement",
  "sourceName": "contracts/HotelManagement.sol",
  "abi": [
    {
      "inputs": [
        {
          "internalType": "address",
          "name": "_setReceptionist",
          "type": "address"
        }
      ],
      "stateMutability": "nonpayable",
      "type": "constructor"
    },
    {
      "inputs": [
        {
          "internalType": "uint256",
          "name": "",
          "type": "uint256"
        },
        {
          "internalType": "address",
          "name": "",
          "type": "address"
        }
      ],
      "name": "CustomerRecords",
      "outputs": [
        {
          "internalType": "uint256",
          "name": "",
          "type": "uint256"
        }
      ],
      "stateMutability": "view",
      "type": "function"
    },
    {
      "inputs": [],
      "name": "Owner",
      "outputs": [
        {
          "internalType": "address payable",
          "name": "",
          "type": "address"
        }
      ],
      "stateMutability": "view",
      "type": "function"
    },
    {
      "inputs": [],
      "name": "availableRoom",
      "outputs": [
        {
          "internalType": "uint256",
          "name": "SoloRooms",
          "type": "uint256"
        },
        {
          "internalType": "uint256",
          "name": "DuoRooms",
          "type": "uint256"
        },
        {
          "internalType": "uint256",
          "name": "FamilyRooms",
          "type": "uint256"
        }
      ],
      "stateMutability": "view",
      "type": "function"
    },
    {
      "inputs": [
        {
          "internalType": "address",
          "name": "_newReceptionist",
          "type": "address"
        }
      ],
      "name": "changeReceptionist",
      "outputs": [],
      "stateMutability": "nonpayable",
      "type": "function"
    },
    {
      "inputs": [
        {
          "internalType": "uint256",
          "name": "_roomTypeCode",
          "type": "uint256"
        }
      ],
      "name": "checkIn",
      "outputs": [],
      "stateMutability": "payable",
      "type": "function"
    },
    {
      "inputs": [],
      "name": "checkOut",
      "outputs": [],
      "stateMutability": "payable",
      "type": "function"
    },
    {
      "inputs": [
        {
          "internalType": "address",
          "name": "",
          "type": "address"
        }
      ],
      "name": "customerRoomType",
      "outputs": [
        {
          "internalType": "uint256",
          "name": "",
          "type": "uint256"
        }
      ],
      "stateMutability": "view",
      "type": "function"
    },
    {
      "inputs": [
        {
          "internalType": "uint256",
          "name": "",
          "type": "uint256"
        }
      ],
      "name": "duoCustomers",
      "outputs": [
        {
          "internalType": "address",
          "name": "",
          "type": "address"
        }
      ],
      "stateMutability": "view",
      "type": "function"
    },
    {
      "inputs": [],
      "name": "duoRooms",
      "outputs": [
        {
          "internalType": "string",
          "name": "roomType",
          "type": "string"
        },
        {
          "internalType": "uint256",
          "name": "roomTypeCode",
          "type": "uint256"
        },
        {
          "internalType": "uint256",
          "name": "availableRoom",
          "type": "uint256"
        },
        {
          "internalType": "uint256",
          "name": "price",
          "type": "uint256"
        },
        {
          "internalType": "uint256",
          "name": "rentPerHours",
          "type": "uint256"
        }
      ],
      "stateMutability": "view",
      "type": "function"
    },
    {
      "inputs": [
        {
          "internalType": "uint256",
          "name": "",
          "type": "uint256"
        }
      ],
      "name": "familyCustomers",
      "outputs": [
        {
          "internalType": "address",
          "name": "",
          "type": "address"
        }
      ],
      "stateMutability": "view",
      "type": "function"
    },
    {
      "inputs": [],
      "name": "familyRooms",
      "outputs": [
        {
          "internalType": "string",
          "name": "roomType",
          "type": "string"
        },
        {
          "internalType": "uint256",
          "name": "roomTypeCode",
          "type": "uint256"
        },
        {
          "internalType": "uint256",
          "name": "availableRoom",
          "type": "uint256"
        },
        {
          "internalType": "uint256",
          "name": "price",
          "type": "uint256"
        },
        {
          "internalType": "uint256",
          "name": "rentPerHours",
          "type": "uint256"
        }
      ],
      "stateMutability": "view",
      "type": "function"
    },
    {
      "inputs": [],
      "name": "receiptionist",
      "outputs": [
        {
          "internalType": "address",
          "name": "",
          "type": "address"
        }
      ],
      "stateMutability": "view",
      "type": "function"
    },
    {
      "inputs": [
        {
          "internalType": "uint256",
          "name": "",
          "type": "uint256"
        }
      ],
      "name": "roomRent",
      "outputs": [
        {
          "internalType": "uint256",
          "name": "",
          "type": "uint256"
        }
      ],
      "stateMutability": "view",
      "type": "function"
    },
    {
      "inputs": [
        {
          "internalType": "uint256",
          "name": "",
          "type": "uint256"
        }
      ],
      "name": "soloCustomers",
      "outputs": [
        {
          "internalType": "address",
          "name": "",
          "type": "address"
        }
      ],
      "stateMutability": "view",
      "type": "function"
    },
    {
      "inputs": [],
      "name": "soloRooms",
      "outputs": [
        {
          "internalType": "string",
          "name": "roomType",
          "type": "string"
        },
        {
          "internalType": "uint256",
          "name": "roomTypeCode",
          "type": "uint256"
        },
        {
          "internalType": "uint256",
          "name": "availableRoom",
          "type": "uint256"
        },
        {
          "internalType": "uint256",
          "name": "price",
          "type": "uint256"
        },
        {
          "internalType": "uint256",
          "name": "rentPerHours",
          "type": "uint256"
        }
      ],
      "stateMutability": "view",
      "type": "function"
    },
    {
      "inputs": [],
      "name": "viewRent",
      "outputs": [
        {
          "internalType": "uint256",
          "name": "_RENT",
          "type": "uint256"
        }
      ],
      "stateMutability": "view",
      "type": "function"
    },
    {
      "inputs": [
        {
          "internalType": "address",
          "name": "_addressOfCustomer",
          "type": "address"
        }
      ],
      "name": "viewRent",
      "outputs": [
        {
          "internalType": "uint256",
          "name": "_rentOfTheCustomer",
          "type": "uint256"
        }
      ],
      "stateMutability": "view",
      "type": "function"
    },
    {
      "inputs": [],
      "name": "viewRevenue",
      "outputs": [
        {
          "internalType": "uint256",
          "name": "_revenue",
          "type": "uint256"
        }
      ],
      "stateMutability": "view",
      "type": "function"
    },
    {
      "inputs": [],
      "name": "withdrawRevenue",
      "outputs": [],
      "stateMutability": "payable",
      "type": "function"
    }
  ],
  "bytecode": "0x60806040526040518060a001604052806040518060400160405280600481526020017f536f6c6f00000000000000000000000000000000000000000000000000000000815250815260200160018152602001600f8152602001670de0b6b3a764000081526020016064815250600860008201518160000190816200008491906200058a565b506020820151816001015560408201518160020155606082015181600301556080820151816004015550506040518060a001604052806040518060400160405280600381526020017f44756f0000000000000000000000000000000000000000000000000000000000815250815260200160028152602001600a8152602001671bc16d674ec80000815260200160c8815250600d60008201518160000190816200012f91906200058a565b506020820151816001015560408201518160020155606082015181600301556080820151816004015550506040518060a001604052806040518060400160405280600681526020017f46616d696c790000000000000000000000000000000000000000000000000000815250815260200160038152602001600581526020016729a2241af62c0000815260200161012c81525060126000820151816000019081620001db91906200058a565b506020820151816001015560408201518160020155606082015181600301556080820151816004015550503480156200021357600080fd5b5060405162002675380380620026758339818101604052810190620002399190620006db565b336000806101000a81548173ffffffffffffffffffffffffffffffffffffffff021916908373ffffffffffffffffffffffffffffffffffffffff16021790555080600160006101000a81548173ffffffffffffffffffffffffffffffffffffffff021916908373ffffffffffffffffffffffffffffffffffffffff160217905550606460076000600181526020019081526020016000208190555060c860076000600281526020019081526020016000208190555061012c600760006003815260200190815260200160002081905550506200070d565b600081519050919050565b7f4e487b7100000000000000000000000000000000000000000000000000000000600052604160045260246000fd5b7f4e487b7100000000000000000000000000000000000000000000000000000000600052602260045260246000fd5b600060028204905060018216806200039257607f821691505b602082108103620003a857620003a76200034a565b5b50919050565b60008190508160005260206000209050919050565b60006020601f8301049050919050565b600082821b905092915050565b600060088302620004127fffffffffffffffffffffffffffffffffffffffffffffffffffffffffffffffff82620003d3565b6200041e8683620003d3565b95508019841693508086168417925050509392505050565b6000819050919050565b6000819050919050565b60006200046b620004656200045f8462000436565b62000440565b62000436565b9050919050565b6000819050919050565b62000487836200044a565b6200049f620004968262000472565b848454620003e0565b825550505050565b600090565b620004b6620004a7565b620004c38184846200047c565b505050565b5b81811015620004eb57620004df600082620004ac565b600181019050620004c9565b5050565b601f8211156200053a576200050481620003ae565b6200050f84620003c3565b810160208510156200051f578190505b620005376200052e85620003c3565b830182620004c8565b50505b505050565b600082821c905092915050565b60006200055f600019846008026200053f565b1980831691505092915050565b60006200057a83836200054c565b9150826002028217905092915050565b620005958262000310565b67ffffffffffffffff811115620005b157620005b06200031b565b5b620005bd825462000379565b620005ca828285620004ef565b600060209050601f831160018114620006025760008415620005ed578287015190505b620005f985826200056c565b86555062000669565b601f1984166200061286620003ae565b60005b828110156200063c5784890151825560018201915060208501945060208101905062000615565b868310156200065c578489015162000658601f8916826200054c565b8355505b6001600288020188555050505b505050505050565b600080fd5b600073ffffffffffffffffffffffffffffffffffffffff82169050919050565b6000620006a38262000676565b9050919050565b620006b58162000696565b8114620006c157600080fd5b50565b600081519050620006d581620006aa565b92915050565b600060208284031215620006f457620006f362000671565b5b60006200070484828501620006c4565b91505092915050565b611f58806200071d6000396000f3fe6080604052600436106101135760003560e01c8063b4a99a4e116100a0578063cc65878311610064578063cc65878314610392578063cebb934f146103cf578063e95a644f1461040c578063f1f87b0614610428578063fd13b48c1461045757610113565b8063b4a99a4e146102c4578063b7db0d81146102ef578063ca6ca4e01461031c578063cb84adeb1461034b578063cba5751c1461038857610113565b80634f573cb2116100e75780634f573cb2146101d85780638760d6c1146101e25780638c27db981461021f57806390cd25681461024a578063921764d61461028757610113565b80629a52821461011857806301ebd3c31461015557806312240ebe146101845780631729a801146101af575b600080fd5b34801561012457600080fd5b5061013f600480360381019061013a91906116a5565b610482565b60405161014c9190611713565b60405180910390f35b34801561016157600080fd5b5061016a6104c1565b60405161017b9594939291906117cd565b60405180910390f35b34801561019057600080fd5b5061019961056d565b6040516101a69190611827565b60405180910390f35b3480156101bb57600080fd5b506101d660048036038101906101d1919061186e565b6107a1565b005b6101e0610873565b005b3480156101ee57600080fd5b506102096004803603810190610204919061186e565b610970565b6040516102169190611827565b60405180910390f35b34801561022b57600080fd5b50610234610aea565b6040516102419190611827565b60405180910390f35b34801561025657600080fd5b50610271600480360381019061026c919061189b565b610b81565b60405161027e9190611827565b60405180910390f35b34801561029357600080fd5b506102ae60048036038101906102a991906116a5565b610ba6565b6040516102bb9190611713565b60405180910390f35b3480156102d057600080fd5b506102d9610be5565b6040516102e691906118fc565b60405180910390f35b3480156102fb57600080fd5b50610304610c09565b60405161031393929190611917565b60405180910390f35b34801561032857600080fd5b50610331610c2b565b6040516103429594939291906117cd565b60405180910390f35b34801561035757600080fd5b50610372600480360381019061036d91906116a5565b610cd7565b60405161037f9190611713565b60405180910390f35b610390610d16565b005b34801561039e57600080fd5b506103b960048036038101906103b491906116a5565b61104e565b6040516103c69190611827565b60405180910390f35b3480156103db57600080fd5b506103f660048036038101906103f1919061186e565b611066565b6040516104039190611827565b60405180910390f35b610426600480360381019061042191906116a5565b61107e565b005b34801561043457600080fd5b5061043d611598565b60405161044e9594939291906117cd565b60405180910390f35b34801561046357600080fd5b5061046c611644565b6040516104799190611713565b60405180910390f35b6003818154811061049257600080fd5b906000526020600020016000915054906101000a900473ffffffffffffffffffffffffffffffffffffffff1681565b60128060000180546104d29061197d565b80601f01602080910402602001604051908101604052809291908181526020018280546104fe9061197d565b801561054b5780601f106105205761010080835404028352916020019161054b565b820191906000526020600020905b81548152906001019060200180831161052e57829003601f168201915b5050505050908060010154908060020154908060030154908060040154905085565b60006001600560003373ffffffffffffffffffffffffffffffffffffffff1673ffffffffffffffffffffffffffffffffffffffff1681526020019081526020016000205414806105fc57506002600560003373ffffffffffffffffffffffffffffffffffffffff1673ffffffffffffffffffffffffffffffffffffffff16815260200190815260200160002054145b8061064657506001600560003373ffffffffffffffffffffffffffffffffffffffff1673ffffffffffffffffffffffffffffffffffffffff16815260200190815260200160002054145b610685576040517f08c379a000000000000000000000000000000000000000000000000000000000815260040161067c906119fa565b60405180910390fd5b600060066000600560003373ffffffffffffffffffffffffffffffffffffffff1673ffffffffffffffffffffffffffffffffffffffff16815260200190815260200160002054815260200190815260200160002060003373ffffffffffffffffffffffffffffffffffffffff1673ffffffffffffffffffffffffffffffffffffffff16815260200190815260200160002054426107229190611a49565b90506000610e10826107349190611aac565b905060008160076000600560003373ffffffffffffffffffffffffffffffffffffffff1673ffffffffffffffffffffffffffffffffffffffff168152602001908152602001600020548152602001908152602001600020546107969190611add565b905080935050505090565b60008054906101000a900473ffffffffffffffffffffffffffffffffffffffff1673ffffffffffffffffffffffffffffffffffffffff163373ffffffffffffffffffffffffffffffffffffffff161461082f576040517f08c379a000000000000000000000000000000000000000000000000000000000815260040161082690611b91565b60405180910390fd5b80600160006101000a81548173ffffffffffffffffffffffffffffffffffffffff021916908373ffffffffffffffffffffffffffffffffffffffff16021790555050565b60008054906101000a900473ffffffffffffffffffffffffffffffffffffffff1673ffffffffffffffffffffffffffffffffffffffff163373ffffffffffffffffffffffffffffffffffffffff1614610901576040517f08c379a00000000000000000000000000000000000000000000000000000000081526004016108f890611b91565b60405180910390fd5b600047905060008054906101000a900473ffffffffffffffffffffffffffffffffffffffff1673ffffffffffffffffffffffffffffffffffffffff166108fc829081150290604051600060405180830381858888f1935050505015801561096c573d6000803e3d6000fd5b5050565b6000600160009054906101000a900473ffffffffffffffffffffffffffffffffffffffff1673ffffffffffffffffffffffffffffffffffffffff163373ffffffffffffffffffffffffffffffffffffffff16146109cc57600080fd5b600060066000600560008673ffffffffffffffffffffffffffffffffffffffff1673ffffffffffffffffffffffffffffffffffffffff16815260200190815260200160002054815260200190815260200160002060008473ffffffffffffffffffffffffffffffffffffffff1673ffffffffffffffffffffffffffffffffffffffff1681526020019081526020016000205442610a699190611a49565b90506000610e1082610a7b9190611aac565b905060008160076000600560008973ffffffffffffffffffffffffffffffffffffffff1673ffffffffffffffffffffffffffffffffffffffff16815260200190815260200160002054815260200190815260200160002054610add9190611add565b9050809350505050919050565b60008060009054906101000a900473ffffffffffffffffffffffffffffffffffffffff1673ffffffffffffffffffffffffffffffffffffffff163373ffffffffffffffffffffffffffffffffffffffff1614610b7b576040517f08c379a0000000000000000000000000000000000000000000000000000000008152600401610b7290611b91565b60405180910390fd5b47905090565b6006602052816000526040600020602052806000526040600020600091509150505481565b60048181548110610bb657600080fd5b906000526020600020016000915054906101000a900473ffffffffffffffffffffffffffffffffffffffff1681565b60008054906101000a900473ffffffffffffffffffffffffffffffffffffffff1681565b6000806000600860020154600d60020154601260020154925092509250909192565b6008806000018054610c3c9061197d565b80601f0160208091040260200160405190810160405280929190818152602001828054610c689061197d565b8015610cb55780601f10610c8a57610100808354040283529160200191610cb5565b820191906000526020600020905b815481529060010190602001808311610c9857829003601f168201915b5050505050908060010154908060020154908060030154908060040154905085565b60028181548110610ce757600080fd5b906000526020600020016000915054906101000a900473ffffffffffffffffffffffffffffffffffffffff1681565b6001600560003373ffffffffffffffffffffffffffffffffffffffff1673ffffffffffffffffffffffffffffffffffffffff168152602001908152602001600020541480610da357506002600560003373ffffffffffffffffffffffffffffffffffffffff1673ffffffffffffffffffffffffffffffffffffffff16815260200190815260200160002054145b80610ded57506001600560003373ffffffffffffffffffffffffffffffffffffffff1673ffffffffffffffffffffffffffffffffffffffff16815260200190815260200160002054145b610e2c576040517f08c379a0000000000000000000000000000000000000000000000000000000008152600401610e23906119fa565b60405180910390fd5b6001600560003373ffffffffffffffffffffffffffffffffffffffff1673ffffffffffffffffffffffffffffffffffffffff1681526020019081526020016000205403610ee2576000610e7d61056d565b9050803414610ec1576040517f08c379a0000000000000000000000000000000000000000000000000000000008152600401610eb890611c23565b60405180910390fd5b60086002016000815480929190610ed790611c43565b91905055505061104c565b6002600560003373ffffffffffffffffffffffffffffffffffffffff1673ffffffffffffffffffffffffffffffffffffffff1681526020019081526020016000205403610f98576000610f3361056d565b9050803414610f77576040517f08c379a0000000000000000000000000000000000000000000000000000000008152600401610f6e90611c23565b60405180910390fd5b60086002016000815480929190610f8d90611c43565b91905055505061104b565b6002600560003373ffffffffffffffffffffffffffffffffffffffff1673ffffffffffffffffffffffffffffffffffffffff168152602001908152602001600020540361104a576000610fe961056d565b905080341461102d576040517f08c379a000000000000000000000000000000000000000000000000000000000815260040161102490611c23565b60405180910390fd5b6008600201600081548092919061104390611c43565b9190505550505b5b5b565b60076020528060005260406000206000915090505481565b60056020528060005260406000206000915090505481565b60018103611231576000600860020154116110ce576040517f08c379a00000000000000000000000000000000000000000000000000000000081526004016110c590611d23565b60405180910390fd5b6008600301543414611115576040517f08c379a000000000000000000000000000000000000000000000000000000000815260040161110c90611db5565b60405180910390fd5b80600560003373ffffffffffffffffffffffffffffffffffffffff1673ffffffffffffffffffffffffffffffffffffffff16815260200190815260200160002081905550426006600083815260200190815260200160002060003373ffffffffffffffffffffffffffffffffffffffff1673ffffffffffffffffffffffffffffffffffffffff168152602001908152602001600020819055506002339080600181540180825580915050600190039060005260206000200160009091909190916101000a81548173ffffffffffffffffffffffffffffffffffffffff021916908373ffffffffffffffffffffffffffffffffffffffff1602179055506008600201600081548092919061122790611dd5565b9190505550611595565b600281036113e4576000600d6002015411611281576040517f08c379a000000000000000000000000000000000000000000000000000000000815260040161127890611d23565b60405180910390fd5b600d6003015434146112c8576040517f08c379a00000000000000000000000000000000000000000000000000000000081526004016112bf90611e70565b60405180910390fd5b80600560003373ffffffffffffffffffffffffffffffffffffffff1673ffffffffffffffffffffffffffffffffffffffff16815260200190815260200160002081905550426006600083815260200190815260200160002060003373ffffffffffffffffffffffffffffffffffffffff1673ffffffffffffffffffffffffffffffffffffffff168152602001908152602001600020819055506003339080600181540180825580915050600190039060005260206000200160009091909190916101000a81548173ffffffffffffffffffffffffffffffffffffffff021916908373ffffffffffffffffffffffffffffffffffffffff160217905550600d60020160008154809291906113da90611dd5565b9190505550611594565b6003810361159357600060126002015411611434576040517f08c379a000000000000000000000000000000000000000000000000000000000815260040161142b90611d23565b60405180910390fd5b601260030154341461147b576040517f08c379a000000000000000000000000000000000000000000000000000000000815260040161147290611f02565b60405180910390fd5b80600560003373ffffffffffffffffffffffffffffffffffffffff1673ffffffffffffffffffffffffffffffffffffffff16815260200190815260200160002081905550426006600083815260200190815260200160002060003373ffffffffffffffffffffffffffffffffffffffff1673ffffffffffffffffffffffffffffffffffffffff168152602001908152602001600020819055506004339080600181540180825580915050600190039060005260206000200160009091909190916101000a81548173ffffffffffffffffffffffffffffffffffffffff021916908373ffffffffffffffffffffffffffffffffffffffff1602179055506012600201600081548092919061158d90611dd5565b91905055505b5b5b50565b600d8060000180546115a99061197d565b80601f01602080910402602001604051908101604052809291908181526020018280546115d59061197d565b80156116225780601f106115f757610100808354040283529160200191611622565b820191906000526020600020905b81548152906001019060200180831161160557829003601f168201915b5050505050908060010154908060020154908060030154908060040154905085565b600160009054906101000a900473ffffffffffffffffffffffffffffffffffffffff1681565b600080fd5b6000819050919050565b6116828161166f565b811461168d57600080fd5b50565b60008135905061169f81611679565b92915050565b6000602082840312156116bb576116ba61166a565b5b60006116c984828501611690565b91505092915050565b600073ffffffffffffffffffffffffffffffffffffffff82169050919050565b60006116fd826116d2565b9050919050565b61170d816116f2565b82525050565b60006020820190506117286000830184611704565b92915050565b600081519050919050565b600082825260208201905092915050565b60005b8381101561176857808201518184015260208101905061174d565b60008484015250505050565b6000601f19601f8301169050919050565b60006117908261172e565b61179a8185611739565b93506117aa81856020860161174a565b6117b381611774565b840191505092915050565b6117c78161166f565b82525050565b600060a08201905081810360008301526117e78188611785565b90506117f660208301876117be565b61180360408301866117be565b61181060608301856117be565b61181d60808301846117be565b9695505050505050565b600060208201905061183c60008301846117be565b92915050565b61184b816116f2565b811461185657600080fd5b50565b60008135905061186881611842565b92915050565b6000602082840312156118845761188361166a565b5b600061189284828501611859565b91505092915050565b600080604083850312156118b2576118b161166a565b5b60006118c085828601611690565b92505060206118d185828601611859565b9150509250929050565b60006118e6826116d2565b9050919050565b6118f6816118db565b82525050565b600060208201905061191160008301846118ed565b92915050565b600060608201905061192c60008301866117be565b61193960208301856117be565b61194660408301846117be565b949350505050565b7f4e487b7100000000000000000000000000000000000000000000000000000000600052602260045260246000fd5b6000600282049050600182168061199557607f821691505b6020821081036119a8576119a761194e565b5b50919050565b7f4f6e6c7920437573746f6d65722063616e206163636573732074686973000000600082015250565b60006119e4601d83611739565b91506119ef826119ae565b602082019050919050565b60006020820190508181036000830152611a13816119d7565b9050919050565b7f4e487b7100000000000000000000000000000000000000000000000000000000600052601160045260246000fd5b6000611a548261166f565b9150611a5f8361166f565b9250828203905081811115611a7757611a76611a1a565b5b92915050565b7f4e487b7100000000000000000000000000000000000000000000000000000000600052601260045260246000fd5b6000611ab78261166f565b9150611ac28361166f565b925082611ad257611ad1611a7d565b5b828204905092915050565b6000611ae88261166f565b9150611af38361166f565b9250828202611b018161166f565b91508282048414831517611b1857611b17611a1a565b5b5092915050565b7f4f6e6c79204f776e65722063616e2061636365737320746869732066756e637460008201527f696f6e0000000000000000000000000000000000000000000000000000000000602082015250565b6000611b7b602383611739565b9150611b8682611b1f565b604082019050919050565b60006020820190508181036000830152611baa81611b6e565b9050919050565b7f506c6561736520636865636b20796f75722072656e7420616e64207468656e2060008201527f7061792074686520616d6f756e7420656c696769626c65000000000000000000602082015250565b6000611c0d603783611739565b9150611c1882611bb1565b604082019050919050565b60006020820190508181036000830152611c3c81611c00565b9050919050565b6000611c4e8261166f565b91507fffffffffffffffffffffffffffffffffffffffffffffffffffffffffffffffff8203611c8057611c7f611a1a565b5b600182019050919050565b7f4e6f20526f6f6d7320617661696c61626c6520666f722074686973207479706560008201527f2c20506c6561736520436865636b204f746865722054797065206f6620526f6f60208201527f6d73000000000000000000000000000000000000000000000000000000000000604082015250565b6000611d0d604283611739565b9150611d1882611c8b565b606082019050919050565b60006020820190508181036000830152611d3c81611d00565b9050919050565b7f506c6561736520656e74657220612056616c696420616d6f756e742c20536f6c60008201527f6f20526f6f6d20636f7374203120457468657200000000000000000000000000602082015250565b6000611d9f603383611739565b9150611daa82611d43565b604082019050919050565b60006020820190508181036000830152611dce81611d92565b9050919050565b6000611de08261166f565b915060008203611df357611df2611a1a565b5b600182039050919050565b7f506c6561736520656e74657220612056616c696420616d6f756e742c2064756f60008201527f20526f6f6d20636f737420322045746865720000000000000000000000000000602082015250565b6000611e5a603283611739565b9150611e6582611dfe565b604082019050919050565b60006020820190508181036000830152611e8981611e4d565b9050919050565b7f506c6561736520656e74657220612056616c696420616d6f756e742c2066616d60008201527f696c7920526f6f6d20636f737420332045746865720000000000000000000000602082015250565b6000611eec603583611739565b9150611ef782611e90565b604082019050919050565b60006020820190508181036000830152611f1b81611edf565b905091905056fea2646970667358221220d2dd329d2a947df98a8f31e64ea354a8c7d036ffbfc50032b51b3446add75ea464736f6c63430008110033",
  "linkReferences": {},
  "deployedLinkReferences": {}
}